:020000040000FA
:10000000F80E00209D010000B7010000AD110000B6
:1000100000000000000000000000000000000000E0
:10002000000000000000000000000000BB01000014
:100030000000000000000000BD010000BF01000042
:10004000BD110000C7110000D1110000DB1100003C
:10005000C1010000C1010000E5110000EF11000026
:10006000C1010000C1010000F9110000C101000040
:1000700003120000C10100000D1200001712000061
:1000800021120000C10100002B12000035120000F7
:100090003F1200004912000053120000C10100008D
:1000A0005D120000C1010000671200007112000023
:1000B0007B120000C1010000851200008F120000B9
:1000C00000F002F800F03EF80CA030C80838241800
:1000D0002D18A246671EAB4654465D46AC4201D180
:1000E00000F030F87E460F3E0FCCB6460126334274
:1000F00000D0FB1AA246AB4633431847D824000071
:10010000F8240000103A02D378C878C1FAD8520710
:1001100001D330C830C101D504680C6070470000BD
:100120000023002400250026103A01D378C1FBD813
:10013000520700D330C100D50B6070471FB51FBDFB
:1001400010B510BD00F0ABF91146FFF7F7FF01F055
:10015000D5FD00F0C3F903B4FFF7F2FF03BC01F0D3
:10016000CDFC000070B505460C46164602E00FCCEB
:100170000FC5103E102EFAD2082E02D303CC03C5B1
:10018000083E042E07D301CC01C5361F03E02178B9
:100190002970641C6D1C761EF9D270BD0C480D4A86
:1001A000002100A1814200D902440B4802600B48A3
:1001B00080470B480047FEE7FEE7FEE7FEE7FEE765
:1001C000FEE7000007480849064A084B7047000050
:1001D000000000200000000008ED00E02D130000EA
:1001E000C1000000F80C0020F80E0020F80C0020E0
:1001F0007047F8B5042A2CD3830712D00B78491C1A
:100200000370401C521E83070BD00B78491C0370EF
:10021000401C521E830704D00B78491C0370401CFD
:10022000521E8B079B0F05D0C91ADF002023DE1B4F
:1002300008C90AE0FFF796FFF8BD1D4608C9FD4052
:100240001C46B4402C4310C0121F042AF5D2F308F8
:10025000C91A521EF0D40B78491C0370401C521E60
:10026000EAD40B78491C0370401C012AE4D40978B5
:100270000170F8BD01E004C0091F0429FBD28B07FF
:1002800001D50280801CC90700D002707047002988
:100290000BD0C30702D00270401C491E022904D3B0
:1002A000830702D50280801C891EE3E70022EEE767
:1002B0000022DFE7024670B50A4392072AD11E4D9D
:1002C000EE0104C808C9541B9443344017D0D0B27F
:1002D000D9B2401A2106014310D190B299B2401A06
:1002E000210401430AD110021902000A090A401A26
:1002F0002102014302D1100E190E401A70BD9A421C
:10030000DFD010BA19BA884201D9012070BD00208F
:10031000C04370BD02780B78401C491C002A09D0EC
:100320009A4207D102780B78401C491C002A01D060
:100330009A42EFD0D01A70BD0101010100220309D9
:100340008B422CD3030A8B4211D300239C464EE0F0
:1003500003460B433CD4002243088B4231D30309AC
:100360008B421CD3030A8B4201D394463FE0C3095E
:100370008B4201D3CB01C01A524183098B4201D376
:100380008B01C01A524143098B4201D34B01C01A61
:10039000524103098B4201D30B01C01A5241C308D9
:1003A0008B4201D3CB00C01A524183088B4201D348
:1003B0008B00C01A524143088B4201D34B00C01A34
:1003C0005241411A00D201465241104670475DE049
:1003D000CA0F00D04942031000D3404253400022CC
:1003E0009C4603098B422DD3030A8B4212D3FC2275
:1003F000890112BA030A8B420CD3890192118B42F4
:1004000008D3890192118B4204D389013AD0921109
:1004100000E08909C3098B4201D3CB01C01A5241C4
:1004200083098B4201D38B01C01A524143098B428D
:1004300001D34B01C01A524103098B4201D30B0176
:10044000C01A5241C3088B4201D3CB00C01A52419B
:1004500083088B4201D38B00C01A5241D9D2430882
:100460008B4201D34B00C01A5241411A00D20146BF
:10047000634652415B10104601D34042002B00D529
:100480004942704763465B1000D3404201B50020EB
:10049000C046C04602BD70477047704770477546FA
:1004A00000F024F8AE46050069465346C008C00077
:1004B000854618B020B5FFF785FE60BC00274908C7
:1004C000B6460026C0C5C0C5C0C5C0C5C0C5C0C5EC
:1004D000C0C5C0C5403D49008D46704710B50446B3
:1004E000C046C0462046FFF736FE10BD00487047A4
:1004F000940C002010B502460020002A04D0012AE6
:100500000BD0022A1DD111E0104B1B681B0C1B04E1
:100510008CB223430D4C236015E00C4B1B6A1B0C63
:100520001B048CB22343094C23620CE0074B40337D
:100530001B681B0C1B048CB22343044C4034236007
:1005400001E0012000BF00BF10BD0000000C004012
:1005500010B502460020002A04D0012A0BD0022A3E
:100560001DD111E0104B5B681B0C1B048CB22343A4
:100570000D4C636015E00C4B5B6A1B0C1B048CB2CA
:100580002343094C63620CE0074B40335B681B0C50
:100590001B048CB22343044C4034636001E001200F
:1005A00000BF00BF10BD0000000C004030B5024687
:1005B0000020002A04D0012A4AD0022A7ED191E0EC
:1005C000724BDB6801246402A3430C7864020125AA
:1005D0006D022C4023436D4CE3602346DB68A41579
:1005E000A3434C7824026D102C402343674CE360F6
:1005F0002346DB687024A3438C78240170252C40AB
:100600002343624CE3602346DB680824A343CC7891
:10061000E40008252C4023435C4CE3602346DB6860
:100620000424A3430C79A40004252C402343574CF5
:10063000E3602346DB680224A3434C79640002256F
:100640002C402343514CE360514C8B6823609AE06B
:100650004E4BDB6A01246402A3430C78640201253B
:100660006D022C402343494CE3622346DB6AA41508
:10067000A3434C7824026D102C402343434CE36287
:100680002346DB6A7024A3438C78240170252C4018
:1006900023433E4CE3622346DB6A0824A343CC7821
:1006A000E40008252C402343384CE3622346DB6AF0
:1006B0000424A3430C79A400042500E061E02C404D
:1006C0002343324CE3622346DB6A0224A3434C7982
:1006D000640002252C4023432C4CE3622D4CCB6854
:1006E000236050E0294B4033DB6801246402A343BC
:1006F0000C78640201256D022C402343234C4034C6
:10070000E3602346DB68A415A3434C7824026D10F4
:100710002C4023431D4C4034E3602346DB687024A7
:10072000A3438C78240170252C402343174C40347C
:10073000E3602346DB680824A343CC78E400082563
:100740002C402343114C4034E3602346DB680424EF
:10075000A3430C79A40004252C4023430B4C4034C4
:10076000E3602346DB680224A3434C79640002253E
:100770002C402343054C4034E360074C0B69236055
:1007800001E0012000BF00BF30BD0000000C0040B0
:10079000580000205C00002060000020014600207E
:1007A000002904D001290AD002291AD10FE00F4AEA
:1007B000D26852085200521C0C4BDA6013E00B4A0C
:1007C000D26A52085200521C084BDA620BE0074A08
:1007D0004032D26852085200521C044B4033DA6057
:1007E00001E0012000BF00BF70470000000C004086
:1007F0000248034988600348886070475A5A0000DD
:1008000000200040A5A50000034800680F21C90290
:1008100088430149086070470020004070B50546D4
:100820000C460026FFF7E4FF002C01D0012000E079
:1008300000200446002D34D0012D0CD0022D3AD1D9
:100840002048006804218843A10004221140084385
:100850001C49086033E01C48C068022188436100DD
:100860000222114008431849C8600846C0680421A4
:100870008843A1000422114008431349C86011486D
:100880000069000900010F300E4908610846006840
:10089000022188436100022211400843094908608F
:1008A0000DE00848006840084000E107C90F084310
:1008B0000449086003E0FFF7A7FF042600BF00BF5C
:1008C000304670BD00200040000D02401EB50020E3
:1008D000002120A31B6802931F4C18CC01940093A5
:1008E0001E4B1B689B069A0F002A04D0012A23D0B6
:1008F000022A23D116E0194BDB680324640223404B
:100900005B0A02ACE05C164B5843164B984208D188
:10091000154B5988114BDB685B055B0D8B4200D191
:1009200012480DE00D4B5B690124640223405B0A11
:100930009B006C46E05803E00D4801E0002000BF3A
:1009400000BF064B1B68DB055C0F0346E3401846FF
:100950001EBD000004081018CC2500000020004037
:1009600040420F0000366E01000C1000408651011D
:100970000048E80110B50024FFF7A8FF044604482A
:1009800000684005810F2046C8400446204610BD3F
:100990000020004010B502460020002901D00123AC
:1009A00000E000231946002907D0084B1B6A0124E8
:1009B00094402343054C236206E0044B1B6A012448
:1009C0009440A343014C236210BD0000002000406E
:1009D00010B5014600208A1E130000F0FCFF05043C
:1009E000101C28344000204B1B895A05520D1F4B08
:1009F000DB68DB0ADB0213431C4CE36031E01A4B7B
:100A0000DB885A05520D194BDB68DB0ADB02134306
:100A1000164CE36025E0144B9B885A05520D134B8E
:100A2000DB68DB0ADB021343104CE36019E00E4B7A
:100A30005B885A05520D0D4BDB68DB0ADB02134362
:100A40000A4CE3600DE0084B1B885A05520D074B1A
:100A5000DB68DB0ADB021343044CE36001E00420A3
:100A600000BF00BF10BD0000000C100000200040BF
:100A700010B50446002C01D1042010BD2648006AA0
:100A8000012109068843401823490862207800287C
:100A900004D0012818D002281FD10AE01E48406B5C
:100AA0000321890688430121C90640181A49486371
:100AB00015E01948406B0321890688430121890606
:100AC0004018154948630AE01348406B0321890622
:100AD000884340181049486301E00420CDE700BF77
:100AE0000D48406B0121490688436178490601227F
:100AF000520611400843084948636068401E074990
:100B000048610321081F00F081FF0020034988612C
:100B1000012008610020B0E70020004000E000E074
:100B200010B5044601480068804710BDA4000020AD
:100B300010B50446204600F0F1F910BD10B50020B4
:100B400000F0B6F801280BD1002000F01DF80D4888
:100B50000068012108430B490860002000F054F8A8
:100B6000012000F0A5F801280AD100F00DF8054891
:100B700000680221084303490860012000F044F89E
:100B800010BD00002C00002001460120002902D0E9
:100B900001292FD116E0194AD26A120C1204184BFF
:100BA000D218164BDA621A46D26A120C1204154B8E
:100BB000D218124BDA621A46926A520852009A62AE
:100BC000002019E00D4AD26A120C12040C4BD21804
:100BD0000A4BDA621A46D26A120C1204094BD21876
:100BE000064BDA621A46926A02239A43034B9A62D0
:100BF000002001E0012000BF00BF7047000002405C
:100C00005A5A0000A5A5000010B501460120002990
:100C100002D0012942D120E0224AD26A120C1204E9
:100C2000214BD2181F4BDA621A46D26A120C1204F8
:100C30001E4BD2181B4BDA621B6A5B069B0F022409
:100C4000A3435B01602423401A46164B1B6AA3434F
:100C50001343144C2362002022E0124AD26A120C81
:100C60001204114BD2180F4BDA621A46D26A120CD8
:100C700012040E4BD2180B4BDA621B6A5B069B0FF9
:100C80005B085B005B01602423401A46054B1B6A2E
:100C9000A3431343034C2362002001E0012000BF63
:100CA00000BF10BD000002405A5A0000A5A5000078
:100CB00001460020002902D001290AD104E0074A98
:100CC000526AD007C00F06E0044A526A9207D00F5A
:100CD00001E0002000BF00BF70470000000002409C
:100CE00010B502460020032901DD042010BD854B0C
:100CF000DB6A1B0C1B04844C1B19824CE3622346E9
:100D0000DB6A1B0C1B04814C1B197E4CE3622346DF
:100D10001B685B0A5B0220248C40E405E40D23433E
:100D2000784C23602346DB6A1B0C1B04764C1B1992
:100D3000744CE3622346DB6A1B0C1B04734C1B19C7
:100D4000704CE36223465B681B0A1B0217248C402D
:100D5000E4B223436B4C63602346DB6A1B0C1B0429
:100D6000694C1B19674CE3622346DB6A1B0C1B04AE
:100D7000664C1B19634CE36223469B681B0A1B02EB
:100D80001B248C40E4B223435E4CA3602346DB6A01
:100D90001B0C1B045C4C1B195A4CE3622346DB6A98
:100DA0001B0C1B04594C1B19564CE3622346DB6891
:100DB0009B0C9B04564C8C40A403A40B2343514C26
:100DC000E3602346DB6A1B0C1B044F4C1B194D4C84
:100DD000E3622346DB6A1B0C1B044C4C1B19494C79
:100DE000E36223461B695B0D5B054A4C8C40E402C1
:100DF000E40A2343434C23612346DB6A1B0C1B0498
:100E0000414C1B193F4CE3622346DB6A1B0C1B045D
:100E10003E4C1B193B4CE36223465B691B0B1B03D7
:100E200018248C402405240D2343364C636123464B
:100E3000DB6A1B0C1B04344C1B19324CE362234647
:100E4000DB6A1B0C1B04314C1B192E4CE36223463E
:100E50009B691B0B1B03F0248C402405240D2343AA
:100E6000284CA3612346DB6A1B0C1B04264C1B1970
:100E7000244CE3622346DB6A1B0C1B04234C1B1926
:100E8000204CE3622346DB695B0B5B037D24E400BB
:100E90008C40E404E40C23431A4CE361032917D18A
:100EA0002346DB6A1B0C1B04174C1B19154CE36211
:100EB0002346DB6A1B0C1B04144C1B19114CE36208
:100EC00023461B6A0424A3431B1D0E4C236215E01A
:100ED0000C4BDB6A1B0C1B040B4C1B19094CE3620B
:100EE0002346DB6A1B0C1B04084C1B19054CE362F0
:100EF00023461B6A0424A343024C2362064B1A6058
:100F000000BFF3E6000002405A5A0000A5A5000009
:100F100050460000E0220200A4000020014600200C
:100F20002C4A914201D9042070472B4AD26A120CF4
:100F300012042A4BD218284BDA621A46D26A120CD3
:100F40001204274BD218244BDA621A46126B120C89
:100F50001204244BD218204B1A6300BF1E4A126A97
:100F6000D206D20F002AF9D11B4AD26A120C1204FF
:100F70001A4BD218184BDA621A46D26A120C1204B3
:100F8000174BD218144BDA621A46126A9208920072
:100F9000921C1A6200220A7000BF0F4A126AD2061F
:100FA000D20F002AF9D10C4AD26A120C12040B4B50
:100FB000D218094BDA621A46D26A120C1204084B94
:100FC000D218054BDA621A46126B120C12041A631D
:100FD00000BFA9E7FF7F0000000002405A5A00004E
:100FE000A5A50000FFFF000010B5024600202C4B15
:100FF0009A4201D9042010BD2A4BDB6A1B0C1B044A
:10100000294C1B19274CE3622346DB6A1B0C1B048B
:10101000264C1B19234CE36223461B6B1B0C1B0441
:10102000234C1B191F4C236300BF1E4B1B6ADB069E
:10103000DB0F002BF9D11B4BDB6A1B0C1B041A4C7A
:101040001B19184CE3622346DB6A1B0C1B04174C6C
:101050001B19144CE36223461B6A9B089B005B1C14
:101060002362117000BF0F4B1B6ADB06DB0F002BE6
:10107000F9D10C4BDB6A1B0C1B040B4C1B19094CE4
:10108000E3622346DB6A1B0C1B04084C1B19054C4E
:10109000E36223461B6B1B0C1B04236300BFAAE700
:1010A000FF7F0000000002405A5A0000A5A5000082
:1010B000FFFF000070B504460D4616462948006A39
:1010C0000121090788434018264908620022294661
:1010D000204600F04BF80021A001234A8018001F91
:1010E000AA008150002E0DD0A0011F49FC314018EC
:1010F00000680121A9400843A1011B4AFC3289185C
:1011000008600CE0A0011849FC314018006801217A
:10111000A9408843A101144AFC3289180860A00143
:101120001149FC314018006A0121A9408843A101FE
:101130000D4AFC3289180862A00111464018406A25
:101140000121A9408843A10189184862A0011146E4
:101150004018C16A0120A8408143A0018018C162E3
:10116000002070BD00200040040C024030B5034652
:10117000002A0BD098010C4C0019C06801248C4047
:1011800020439C01084D6419E0600AE09801064C78
:101190000019C06801248C40A0439C01024D6419D1
:1011A000E060002030BD0000000D024008B50020C6
:1011B000009000BF00980028FCD008BD10B50020AA
:1011C000C046C04610BD10B50120C046C04610BD87
:1011D00010B50220C046C04610BD10B50320C04661
:1011E000C04610BD10B5002000F070FA10BD10B55B
:1011F000012000F06BFA10BD10B50020C046C046BB
:1012000010BD10B50020C046C04610BD10B500206E
:1012100000F0A6F810BD10B5012000F0A1F810BD37
:1012200010B5022000F09CF810BD10B50420C04697
:10123000C04610BD10B50520C046C04610BD10B553
:101240000620C046C04610BD10B50020C046C046AE
:1012500010BD10B50020C046C04610BD10B500201E
:10126000C046C04610BD10B50020C046C04610BDE7
:1012700010B50120C046C04610BD10B50020C046C4
:10128000C04610BD10B50020FFF74AFC10BD10B5D8
:101290000020C046C04610BD10B51A48007800288E
:1012A00026D1012000F083FA1749184A1278885491
:1012B00017480068C1B21448144A12788154134880
:1012C0000078401C1149087008460078401E0E49FD
:1012D000085C0A280CD101200A49087000200A493C
:1012E0000A4A12788854094908700120094908708F
:1012F00009480068002804D005490968C8B200F010
:10130000A9FC10BD280000203E050020240000207C
:1013100000010040250000206C00002010B5FFF700
:10132000D5FA0149086010BD000000201CB502205C
:10133000FFF74EFB01210020FFF770FAFFF7EEFFE9
:101340000821684600F059FC0120694648700348AE
:1013500001906846FFF78CFB1CBD0000FFFFFF00FB
:1013600010B50446002C04D0012C06D0022C0CD160
:1013700007E007480068804708E0064800688047A3
:1013800004E005480068804700E000BF00BF10BDD2
:10139000580000205C0000206000002010B590B0D4
:1013A00004460C2109A800F028FC032108A800F03D
:1013B00024FC082106A800F020FC142101A800F05C
:1013C0001CFC002203210220FFF774FE00220421EE
:1013D0000220FFF76FFE00BF3F48C0680821884326
:1013E0003D49C8603D48C068C008C000801D3B49F9
:1013F000C86039480068082188433749086000BF41
:1014000000BF0846C068102188433349C86033488C
:101410000069C008C000801D304908612E4800687E
:101420001021884310302C4908602D484068012164
:10143000490388432A49486000BF01210820FFF77B
:10144000A9FA01210846FFF7A5FA26480B900020CB
:1014500009900A9009A80E90012108A8017701744B
:10146000002101700D9068464176079403210176B2
:10147000FFF780FA1C49086006AA084601680120A7
:1014800000F0E6F9194908800121684641720021FF
:10149000017201A90120FFF789F814480188012091
:1014A000FFF728F8114801880120FFF751F80120C3
:1014B000FFF774F90CA9012000F042F90121084658
:1014C00000F0ABF80121084600F062F8012108465F
:1014D00000F08BF810B010BD800D0240800C02406F
:1014E000000F0240991200000800002004000020B4
:1014F00070B50546A81D44B2204600F07BFA0321D2
:10150000204600F0BFFA2046002809DBC206D20EB2
:1015100001219140034A1160BFF34F8FBFF36F8FDA
:1015200000BF70BD80E100E010B502460020002140
:1015300000BF0BE014234B43064CE358934203D106
:1015400014234B43181903E04B1CD9B20229F1D3E1
:1015500000BF10BD3000002070B50546A81D44B284
:10156000204600F047FA0321204600F08BFA20467F
:10157000002809DB00BF00BFC206D20E0121914046
:10158000024A116000BF00BF00BF70BD00E100E073
:1015900070B506460D4600243046FFF7C5FF0446E9
:1015A000002C01D1042070BD002D04D0012D09D0E4
:1015B000022D15D10DE060684069042188436168FF
:1015C00048610FE060684069400840006168486118
:1015D00008E060684069022188436168486101E071
:1015E0000420E0E700BF0020DDE770B506460D46A9
:1015F00000243046FFF798FF0446002C01D1042058
:1016000070BD606840681021884329011022114094
:101610000843616848600020F2E770B506460D4651
:1016200000243046FFF780FF0446002C01D104203F
:1016300070BD002D02D0012D10D107E06068406818
:1016400002218843801C6168486009E06068406846
:1016500040084000401C6168486001E00420E7E762
:1016600000BF0020E4E7F8B506460D460027002439
:101670003046FFF759FF0446002C01D10420F8BD85
:10168000002D04D0012D0BD0022D1BD111E060687C
:1016900000694007C00F012148404840074612E05A
:1016A00060680069C007C00F0121484048400746F4
:1016B00009E0606800698007C00F01214840484088
:1016C000074600E000BF00BF3846D8E770B50546C2
:1016D00000242846FFF728FF0446002C00D170BDE7
:1016E000606800694007C00F002809D00021284623
:1016F000FFF74EFFE068002801D0E0688047EEE782
:1017000060680069C007C00F002808D00121284682
:10171000FFF73EFF2069002801D0206980476068FC
:1017200000698007C00F002808D002212846FFF773
:101730002FFFA068002801D0A068804700BFCEE737
:10174000F8B506460C46012700253046FFF7ECFEAB
:101750000546002D01D10420F8BD002C01D1042044
:10176000FAE72178304600F0B0F8074660680028B4
:1017700004D03046616800F0C0F80746A068002831
:1017800008D0A0684168E960A06881682961A06804
:101790000068A860207B012803D13046FFF7DCFEFB
:1017A00002E03046FFF7A4FE00273846D4E770B5C4
:1017B000054600242846FFF7B7FE0446002C01D159
:1017C000042070BD60680068C0B2FAE770B50546D5
:1017D0000C4622460021284600F0B3F82146284650
:1017E00000F008F800BF02212846FFF73CFF01285F
:1017F000F9D070BD70B506460C4600253046FFF79F
:1018000093FE0546002D01D1042070BD0221304613
:10181000FFF7BEFE6868046000BF02213046FFF794
:1018200022FF0028F9D002213046FFF7B1FE002048
:10183000EBE770B506460C46002500BF615D3046FB
:10184000FFF7C4FF681CC5B2605D0028F6D170BD0B
:10185000F8B507460E46144600200090002538468D
:10186000FFF762FE0546002D01D0002C01D10020BB
:10187000F8BD6868406801214902884361784902DF
:10188000012252021140084369684860207800280C
:1018900006D0012806D0022803D0032811D102E087
:1018A00000BF0FE000BF626851016278521C7243B2
:1018B0001046FEF743FD01210904081A80B200908A
:1018C00000E000BF00BF0098D2E770B506460D46A5
:1018D00000243046FFF728FE0446002C01D10420E6
:1018E00070BD60684068C0218843A901C0221140D2
:1018F0000843616848600020F2E770B506460C4670
:1019000000253046FFF710FE0546002D01D10420CA
:1019100070BD002C13D0686840682021884321786E
:101920004901202211400843696848602078012855
:1019300005D1607869688860A0786968C86000200F
:10194000E6E7F7B51646002400250098FFF7ECFD02
:101950000546002D01D10420FEBD002709E08020AE
:101960003040802801D1601CC4B27006060E781C7D
:10197000C7B2082FF3DB0198002815D12046E10FEC
:10198000091849104900611A07D0686840680821A1
:1019900088430830696848601BE06868406808212F
:1019A00088436968486014E02046E10F091849102F
:1019B0004900611A06D06868406808218843696850
:1019C000486006E068684068082188430830696814
:1019D00048600020C0E730B47446641E2578641C5B
:1019E000AB4204D3635D5B00E31830BC18471D466F
:1019F000F8E70000002805DBC206D20E0121914065
:101A0000014A11607047000080E200E010B5002834
:101A100019DB1A4A03231B02D21883089B00D258F1
:101A20008307DC0EFF23A3409A438B071B0E84071A
:101A3000E40EA3401A43114B032424021B1984080B
:101A4000A4001A5118E00E4A03071B0F083B9B081D
:101A50009B00D2588307DC0EFF23A3409A438B07D9
:101A60001B0E8407E40EA3401A43054B0407240F02
:101A7000083CA408A4001A5110BD000000E100E0D9
:101A80001CED00E010B5002819DB1A4A03231B02E5
:101A9000D21883089B00D2588307DC0EFF23A34093
:101AA0009A438B071B0E8407E40EA3401A43114B85
:101AB000032424021B198408A4001A5118E00E4ABA
:101AC00003071B0F083B9B089B00D2588307DC0EC3
:101AD000FF23A3409A438B071B0E8407E40EA34009
:101AE0001A43054B0407240F083CA408A4001A510C
:101AF00010BD000000E100E01CED00E000BF7047F9
:101B000001460020302904DB392902DC0846303840
:101B10000CE0612904DB662902DC0846573805E041
:101B2000412903DB462901DC084637387047FFB5F9
:101B300082B007460C46154605980B9B002B01D03A
:101B4000022300E00023019300211DE0002218E0A1
:101B50000123DB03034000934304180CA14209D284
:101B60007B5C8026D6403340002B01D0012300E06F
:101B700000231843009B002B02D003466B401846FD
:101B8000521C082AE4D3491C019BE3188B42DDD880
:101B900006B0F0BD38B504460D4601200023034AC7
:101BA000294600902046FFF7C2FF38BD21100000F3
:101BB00070B506460C46002503E0142000F0AAF993
:101BC0006D1C00F09EF9002802D107488542F4D32D
:101BD00000F097F9002804D000F07DF92070012072
:101BE00070BD0020FCE70000A086010070B505462E
:101BF0000C46204600F078F970BD10B50A46014643
:101C0000002900D110BD02E000230B70491C1346CF
:101C1000521E002BF8D100BFF4E7000001460A482D
:101C200000680A4A1268904201D1002070470648B5
:101C30000078401C4006400E034A106004481268B9
:101C4000805C08700120F1E764000020680000203B
:101C5000D40A002001460B480078401C4006400E84
:101C6000094A1268904201D1002070470548007867
:101C7000401C4006400E034A10600448126881541C
:101C80000120F2E76800002064000020D40A002050
:101C900010B500F036F9002802D000F01CF910BD94
:101CA0000020C043FBE70000002002490860024911
:101CB0000860704764000020680000200448006845
:101CC00004490968884201D1012070470020FCE7DF
:101CD00064000020680000200146302901DB39291A
:101CE00007DD412901DB462903DD612903DB662984
:101CF00001DC012070470020FCE700004B20800140
:101D0000FFF74CFB00212C48FEF7EAFF52E02B487E
:101D1000006800283FD12A48007801283BD10020E4
:101D20002749087027492848FEF7C4FA00280AD135
:101D300026480078142806DC01202049086024A1E8
:101D4000FFF777FD27E01F492B48FEF7B3FA00287D
:101D50000BD11E480078142807DC022017490860C0
:101D600026A10120FFF765FD15E016492748FEF77B
:101D7000A1FA00280BD115480078142807DC0320AD
:101D80000E49086022A10120FFF753FD03E028A1BE
:101D90000120FFF74EFD09480068012805D100F039
:101DA0009BFB00200549086004E004480068022805
:101DB00000D000BFABE700003D0B00006C0000202E
:101DC000250000203E050020710000202400002096
:101DD0006F6B2C706C656173652073656C656374E3
:101DE00020696D6167652062696E6172792066693C
:101DF0006C650D0A000000007A0000206F6B2C4417
:101E0000656C6574696E670D0A0000008B00002028
:101E10006F6B2C706C656173652073656C656374A2
:101E20002061206D61736B2066696C650D0A00008E
:101E3000756E7265636F676E697A656420636F6D36
:101E40006D616E640D0A0000FFB585B0044616464C
:101E500001200490102003900020019000E0641CF9
:101E600020782028FBD02AE0002004902078641CF1
:101E700002900298FFF744FE07460298FFF72CFFF6
:101E8000002808D00398874205DA0399019848434F
:101E9000C019019013E0089800280DD0089D00E0BB
:101EA0006D1C2878002803D0297802988142F7D148
:101EB0002878002800D005E0002009B0F0BD207887
:101EC0000028D1D100BF069901980860002E00D0EB
:101ED00034600120F1E708B5002100916846FFF762
:101EE0009DFE6846007808BD10B504460A2C03D153
:101EF0000D210120FFF76AFC21460120FFF766FC57
:101F000010BD00B5FFF7DAFE002801D1012000BDA9
:101F10000020FCE77047000038B509E00549096872
:101F200008786946FFF744FE0446002C00D138BD0E
:101F3000F4E7000008060020FEB5002001900090A4
:101F400000279048807A002808D08F4909680878CF
:101F50000621FFF74BFE00218A48817256E08A492C
:101F60000968087802A9FFF723FE04466846007A4C
:101F700086490880002C41D07F1C6846007A0128E1
:101F800006D002280FD004282BD0182834D118E00E
:101F900001207F4908807B482038C069401C79496E
:101FA0002039C86100BF6846007A022806D175480A
:101FB0002038006A401C73492039086201200190D2
:101FC0001BE070482038406A401C6E492039486246
:101FD0000098401C0090032802D10420C043FEBD9D
:101FE0000BE0012F07D16849096808780621FFF73F
:101FF000FDFD781FF3E700E000BF07E0FFF78CFF6F
:102000006448FFF787FF0220C043E8E701980028F3
:10201000A5D05D49096808785A491839FFF7C8FD05
:10202000044658482038007A58494880002C01D18D
:10203000E01ED4E754490968087852491739FFF778
:10204000B7FD04464F482038407A50498880002C1C
:1020500001D1E01EC3E76846007A012801D1802142
:1020600001E0012189024748203801614648001DEE
:10207000444920394860002518E043490968087838
:1020800002A9FFF795FD0446002C0BD06846017AA3
:102090003D48001D41556846017AE81C40003B4A16
:1020A000115202E00220C04399E76D1C35482038E8
:1020B0000069A842E1DC34490968087831491639D9
:1020C000FFF776FD04462F482038817A3248C180D8
:1020D000002C01D1E01E82E72A48007A002810D0A7
:1020E00029490968087827491539FFF761FD044631
:1020F00024482038C17A28480181002C01D1E01EF3
:102100006DE720482038007A1E492039497A484036
:10211000FF2804D0FFF700FF0520C0435FE7194800
:10212000007A002814D01748203801691648001D8D
:10213000FFF730FD064613482038807A0102114827
:102140002038C07A0143B14219D00620C04346E787
:102150000026002505E00C48001D405D801986B270
:102160006D1C084820380069A842F4DC0548203876
:10217000807AF1B2884202D00620C0432FE70020C7
:102180002DE70000280A002008060020680B002028
:102190009C00002090D00000680C002010B5044680
:1021A000FFF7CAFE2060206800283ED14448017A2B
:1021B000007B814227D101214148203081722038A3
:1021C000007B401CC1B23E4801734069012818D011
:1021D0003B48C06A002814D03948006B3849096967
:1021E0004018374908630846006BC96A884208D915
:1021F0003348016BC06A091A31480069401A3049F6
:102200000861012010BD2E48017A007B401EC0B23B
:10221000814207D12B49096808780621FFF7E6FCBF
:102220000220EFE70720C04320602068401D0028FF
:1022300001D10120E6E72068001D00282BD12149AB
:10224000096808780621FFF7D1FC1D48406902287B
:102250001BD11B4A2032127A002A01D0432200E00F
:1022600015221146174A12681078FFF7BFFC144870
:102270008069401C12498861FFF75EFE20601149A9
:10228000096808780621FFF7B1FC01210C482030CD
:1022900041720120B6E70A4A2032127A002A01D0A0
:1022A000432200E015221146064A12681078FFF713
:1022B0009DFC03488069401C014988610020A1E71A
:1022C000080A00200806002070470000FEB50546F9
:1022D0000E4600240A200290002001903F20400278
:1022E000009001A842490860002142480161012193
:1022F0002030017200203F492031487200213D48C2
:10230000203081723B496868486100208861002163
:102310003848C16101620020364948620863C862DA
:102320000A462032127A002A01D0432200E0152208
:1023300011462F4A12681078FFF758FC4BE0FFF760
:10234000FBFD0446002C20D12A48007A002815D134
:1023500000BF28484068017826484068401C254A4C
:1023600050600029F5D1114623A3002248682C3182
:10237000FFF76AFD01201F492031887201211D48A5
:10238000017300201B490861FEBDE01C00281ED11E
:102390000298401E0290002803DC002015492031DD
:1023A00008721648FFF7B6FD124A2032127A002A48
:1023B00001D0432200E0152211460D4A1268107820
:1023C000FFF714FC0B488069401C0A498861601DB6
:1023D000002800D107E00A4801680068401E084A4A
:1023E00010600029ABDC00BF34600020C043CBE7A5
:1023F00008060020080A00202000000020A100009C
:10240000A0000020F7B584B007460D4600200290DA
:10241000401F039047E028480069002825D1142078
:1024200001900AE003A8FFF7B9FE0646012E00D18D
:1024300008E0022E00D100E000BF0198411E01918A
:102440000028EFDC00BF0398002804DB1A48203086
:10245000407A002809D00399069801600020C04303
:1024600015490861029807B0F0BD13482030407A42
:10247000002818D110480469A54200DA2C460E48FD
:10248000224641683846FDF7B4FE2D1B3F190298DD
:102490000019029008480069011B07480161406863
:1024A00001190548416004482030407A002801D1D4
:1024B000002DB0DC0298D6E7080A002070B5064669
:1024C0000C4600BFA047051EFCDA0248FFF722FDBC
:1024D00070BD000090D00000F0B585B000200490E1
:1024E000012003903F277F0200253E46FFF7DCFBDB
:1024F00080212948FDF7DCFE0220019004A96846EE
:10250000FFF7E4FE0446002C04D024A10120FFF7CD
:1025100090F936E000BF04AA04212548FFF772FFB6
:10252000041E20DD30193F214902884204D33019AE
:1025300047214902884208D33F204002FEF7F8FABB
:102540001CA10120FFF775F912E0002508E0184AE8
:10255000515D38467F1CFEF747FD0390681C85B22D
:10256000042DF4D3361917480069401C0028D2D135
:1025700000BF04A8FFF7A8FE13490020FFF79EFF45
:1025800000BF04A8FFF7A0FE0F490020FFF796FF49
:102590000020C04305B0F0BDD40A00206572726F00
:1025A00072206F70656E20796D6F64656D210A0011
:1025B0003E0100207772697465206572726F720D3A
:1025C0000A000000080A0020911C000000800000A2
:1025D00000960000F425000000000020A800000084
:1025E000040100009C260000A8000020500E0000FE
:1025F0002001000000093D00000000000000000074
:102600005500527573484848210A00300A00310AC3
:1026100000320A00330A0000000000000000000041
:10262000000000000000000000000040000000006A
:102630000000000000000000010000000001004058
:10264000000000000000000000000000000000008A
:10265000000000000000000000000000000000007A
:102660000000000000656E61626C650D0A00646523
:102670006C637573746F6D666C6173680D0A006DC1
:1026800061736B20646F776E6C6F61640D0A00007C
:0C2690000000000014000000000000002A
:04000005000000C136
:00000001FF
