:020000040000FA
:10000000400D002049010000630100005D0F000069
:1000100000000000000000000000000000000000E0
:100020000000000000000000000000006701000068
:10003000000000000000000069010000D71100006E
:100040006D0F0000770F0000810F00008B0F000084
:100050006D0100006D010000950F00009F0F000072
:100060006D0100006D010000A90F00006D0100008E
:10007000B30F00006D010000BD0F0000C70F0000AE
:10008000D10F00006D010000DB0F0000E50F000044
:10009000EF0F0000F90F0000031000006D010000D9
:1000A0000D1000006D01000017100000211000006D
:1000B0002B1000006D010000351000003F10000003
:1000C00000F002F800F030F80CA030C8083824180E
:1000D0002D18A246671EAB4654465D46AC4201D180
:1000E00000F022F87E460F3E0FCCB6460126334282
:1000F00000D0FB1AA246AB4633431847102D000030
:10010000302D00000023002400250026103A01D3E2
:1001100078C1FBD8520700D330C100D50B607047BF
:100120001FB51FBD10B510BD00F0EAF81146FFF76E
:10013000F7FF02F05BFA00F002F903B4FFF7F2FFF9
:1001400003BC01F0C1FB00000C480D4A002100A1D6
:10015000814200D902440B4802600B4880470B489B
:100160000047FEE7FEE7FEE7FEE7FEE7FEE70000EA
:1001700007480849064A084B704700000000002065
:100180000000000008ED00E0E9110000C1000000DF
:10019000400B0020400D0020400B00207047002243
:1001A00003098B422CD3030A8B4211D300239C46B4
:1001B0004EE003460B433CD4002243088B4231D32C
:1001C00003098B421CD3030A8B4201D394463FE0C0
:1001D000C3098B4201D3CB01C01A524183098B4220
:1001E00001D38B01C01A524143098B4201D34B0109
:1001F000C01A524103098B4201D30B01C01A52416C
:10020000C3088B4201D3CB00C01A524183088B42F2
:1002100001D38B00C01A524143088B4201D34B00DB
:10022000C01A5241411A00D201465241104670474D
:100230005DE0CA0F00D04942031000D34042534052
:1002400000229C4603098B422DD3030A8B4212D312
:10025000FC22890112BA030A8B420CD38901921144
:100260008B4208D3890192118B4204D389013AD081
:10027000921100E08909C3098B4201D3CB01C01A56
:10028000524183098B4201D38B01C01A5241430969
:100290008B4201D34B01C01A524103098B4201D357
:1002A0000B01C01A5241C3088B4201D3CB00C01AC4
:1002B000524183088B4201D38B00C01A5241D9D2DC
:1002C00043088B4201D34B00C01A5241411A00D25D
:1002D0000146634652415B10104601D34042002B59
:1002E00000D54942704763465B1000D3404201B5D8
:1002F0000020C046C04602BD704770477047704737
:10030000754600F025F8AE46050069465346C0081C
:10031000C000854618B020B5FFF72AFF60BC002753
:100320004908B6460026C0C5C0C5C0C5C0C5C0C5C1
:10033000C0C5C0C5C0C5403D49008D46704710B519
:100340000446C046C0462046FFF7F7FE10BD000039
:1003500000487047DC0A002030B58C180278401C39
:1003600013071B0F01D10378401C120906D1027834
:10037000401C03E00578401C0D70491C5B1EF9D140
:1003800001E00B70491C521EFBD1A142E6D30020B4
:1003900030BD000010B502460020002A04D0012A1A
:1003A0000BD0022A1DD111E0104B1B681B0C1B0443
:1003B0008CB223430D4C236015E00C4B1B6A1B0CC5
:1003C0001B048CB22343094C23620CE0074B4033DF
:1003D0001B681B0C1B048CB22343044C4034236069
:1003E00001E0012000BF00BF10BD0000000C004074
:1003F00010B502460020002A04D0012A0BD0022AA0
:100400001DD111E0104B5B681B0C1B048CB2234305
:100410000D4C636015E00C4B5B6A1B0C1B048CB22B
:100420002343094C63620CE0074B40335B681B0CB1
:100430001B048CB22343044C4034636001E0012070
:1004400000BF00BF10BD0000000C004030B50246E8
:100450000020002A04D0012A4AD0022A7ED191E04D
:10046000724BDB6801246402A3430C78640201250B
:100470006D022C4023436D4CE3602346DB68A415DA
:10048000A3434C7824026D102C402343674CE36057
:100490002346DB687024A3438C78240170252C400C
:1004A0002343624CE3602346DB680824A343CC78F3
:1004B000E40008252C4023435C4CE3602346DB68C2
:1004C0000424A3430C79A40004252C402343574C57
:1004D000E3602346DB680224A3434C7964000225D1
:1004E0002C402343514CE360514C8B6823609AE0CD
:1004F0004E4BDB6A01246402A3430C78640201259D
:100500006D022C402343494CE3622346DB6AA41569
:10051000A3434C7824026D102C402343434CE362E8
:100520002346DB6A7024A3438C78240170252C4079
:1005300023433E4CE3622346DB6A0824A343CC7882
:10054000E40008252C402343384CE3622346DB6A51
:100550000424A3430C79A400042500E061E02C40AE
:100560002343324CE3622346DB6A0224A3434C79E3
:10057000640002252C4023432C4CE3622D4CCB68B5
:10058000236050E0294B4033DB6801246402A3431D
:100590000C78640201256D022C402343234C403427
:1005A000E3602346DB68A415A3434C7824026D1056
:1005B0002C4023431D4C4034E3602346DB68702409
:1005C000A3438C78240170252C402343174C4034DE
:1005D000E3602346DB680824A343CC78E4000825C5
:1005E0002C402343114C4034E3602346DB68042451
:1005F000A3430C79A40004252C4023430B4C403426
:10060000E3602346DB680224A3434C79640002259F
:100610002C402343054C4034E360074C0B692360B6
:1006200001E0012000BF00BF30BD0000000C004011
:1006300024010020280100202C0100200146002078
:10064000002904D001290AD002291AD10FE00F4A4B
:10065000D26852085200521C0C4BDA6013E00B4A6D
:10066000D26A52085200521C084BDA620BE0074A69
:100670004032D26852085200521C044B4033DA60B8
:1006800001E0012000BF00BF70470000000C0040E7
:100690000248034988600348886070475A5A00003E
:1006A00000200040A5A50000034800680F21C902F2
:1006B00088430149086070470020004070B5054636
:1006C0000C460026FFF7E4FF002C01D0012000E0DB
:1006D00000200446002D34D0012D0CD0022D3AD13B
:1006E0002048006804218843A100042211400843E7
:1006F0001C49086033E01C48C0680221884361003F
:100700000222114008431849C8600846C068042105
:100710008843A1000422114008431349C8601148CE
:100720000069000900010F300E49086108460068A1
:1007300002218843610002221140084309490860F0
:100740000DE00848006840084000E107C90F084371
:100750000449086003E0FFF7A7FF042600BF00BFBD
:10076000304670BD00200040000D024001460020D0
:10077000002904D0012907D002290FD109E0094A34
:10078000D2681205D00F0AE0064A12695206D00F4D
:1007900005E0044A5269D204D00F00E000BF00BF58
:1007A00070470000002000401EB50020002120A35B
:1007B0001B6802931F4C18CC019400931E4B1B68BE
:1007C0009B069A0F002A04D0012A23D0022A23D1A3
:1007D00016E0194BDB680324640223405B0A02AC79
:1007E000E05C164B5843164B984208D1154B59887C
:1007F000114BDB685B055B0D8B4200D112480DE0AD
:100800000D4B5B690124640223405B0A9B006C462C
:10081000E05803E00D4801E0002000BF00BF064B98
:100820001B68DB055C0F0346E34018461EBD000055
:1008300004081018042E00000020004040420F0061
:1008400000366E01000C1000408651010048E8019E
:1008500010B50024FFF7A8FF0446044800684005CF
:10086000810F2046C8400446204610BD00200040AD
:1008700010B50446207800F05FF9607800F006F8C3
:10088000A07800F039F8002010BD000010B5044633
:10089000102C14D008DC012C0DD0022C0CD0042C10
:1008A0000BD0082C21D109E0202C09D0402C08D0F5
:1008B000802C1AD106E000BF00BF00BF00BF00BF00
:1008C00000BF00BFFFF7E4FE204600F077FCC4B293
:1008D00008480068FF21C1318843A101FF22C132CD
:1008E000114008430349086001E0042010BD00BF27
:1008F0000020FBE70020004010B50446012C06D084
:10090000022C05D0042C04D0082C16D102E000BF24
:1009100000BF00BFFFF7BCFE204600F04FFCC4B292
:1009200008480068032149028843610203225202F9
:10093000114008430349086001E0042010BD00BFD6
:100940000020FBE70020004010B5024600200029EF
:1009500001D0012300E000231946002907D0084BED
:100960001B6A012494402343054C236206E0044B98
:100970001B6A01249440A343014C236210BD000074
:100980000020004010B5014600208A1E130000F030
:1009900009FF0504101C28344000204B1B895A0510
:1009A000520D1F4BDB68DB0ADB0213431C4CE36078
:1009B00031E01A4BDB885A05520D194BDB68DB0A14
:1009C000DB021343164CE36025E0144B9B885A0569
:1009D000520D134BDB68DB0ADB021343104CE36060
:1009E00019E00E4B5B885A05520D0D4BDB68DB0A94
:1009F000DB0213430A4CE3600DE0084B1B885A05E9
:100A0000520D074BDB68DB0ADB021343044CE36047
:100A100001E0042000BF00BF10BD0000000C10006A
:100A20000020004001460020002906D001290CD0FA
:100A3000022915D0032927D11DE0154A5269032345
:100A40009B029A43124B5A6120E0114A52690323D8
:100A50009B029A4301239B02D2180D4B5A6115E069
:100A60000B4A526903239B029A430123DB02D218EB
:100A7000074B5A610AE0064A526903239B029A43D4
:100A8000D218034B5A6101E0042000BF00BF704739
:100A90000020004070B504460025FFF7F9FD002C4A
:100AA00004D0012C04D0022C0DD100E000BF00BF07
:100AB0000848006830218843210130221140084352
:100AC0000449086003E0FFF7EFFD042500BF00BF05
:100AD000284670BD0020004001460020032906D0B2
:100AE00004290BD0052911D006291FD116E0114A7F
:100AF000126930239A430F4B1A6119E00D4A1269AB
:100B000030239A4310320B4B1A6111E0094A1269E3
:100B100030239A432032074B1A6109E0054A1269D3
:100B200030239A433032034B1A6101E0042000BFA6
:100B300000BF70470020004070B505462C46224893
:100B400000688006860F002C04D0012C03D0022CF4
:100B500009D104E009E00620FFF7BEFF05E003200D
:100B6000FFF760FF01E0042070BD00BF174818497F
:100B7000C8621848C862012C01D0012E07D100BFFD
:100B80001348006A04218843001D114908620121AD
:100B90002046FFF793FD00BF2046FFF7E7FD002842
:100BA000FAD02046FFF776FF00213046FFF786FD9A
:100BB000012C05D00648006A0421884304490862D4
:100BC00000F00AFB0020CFE7002000405A5A000046
:100BD00000000240A5A5000010B50446002C01D17C
:100BE000042010BD2648006A0121090688434018E8
:100BF000234908622078002804D0012818D0022850
:100C00001FD10AE01E48406B032189068843012159
:100C1000C90640181A49486315E01948406B03217A
:100C200089068843012189064018154948630AE06E
:100C30001348406B032189068843401810494863D4
:100C400001E00420CDE700BF0D48406B01214906BB
:100C50008843617849060122520611400843084939
:100C600048636068401E074948610321081F00F07F
:100C7000B3FD002003498861012008610020B0E72E
:100C80000020004000E000E010B504460148006884
:100C9000804710BD300100207047000002469001DF
:100CA000034BC0184068C840C007C00F7047000021
:100CB000000D024070B504460D4616462948006AEC
:100CC0000121090788434018264908620022294665
:100CD000204600F0FFF80021A001234A8018001FE1
:100CE000AA008150002E0DD0A0011F49FC314018F0
:100CF00000680121A9400843A1011B4AFC32891860
:100D000008600CE0A0011849FC314018006801217E
:100D1000A9408843A101144AFC3289180860A00147
:100D20001149FC314018006A0121A9408843A10102
:100D30000D4AFC3289180862A00111464018406A29
:100D40000121A9408843A10189184862A0011146E8
:100D50004018C16A0120A8408143A0018018C162E7
:100D6000002070BD00200040040C0240F0B5044695
:100D70000D4616461F465548006A0121090788435B
:100D800040185249086200222946204600F0A2F885
:100D90000021A0014E4A8018001FAA008150002E99
:100DA0000DD0A0014A49FC31401800680121A9403A
:100DB0000843A101464AFC32891808600CE0A001F2
:100DC0004349FC31401800680121A9408843A10132
:100DD0003F4AFC3289180860079800280DD0A0010E
:100DE0003B49FC314018C0690121A9400843A101D9
:100DF000374AFC328918C8610CE0A0013449FC3143
:100E00004018C0690121A9408843A101304AFC3241
:100E10008918C861002F0DD0A0012D49FC31401860
:100E2000006A0121A9400843A101294AFC3289181E
:100E300008620CE0A0012649FC314018006A01213B
:100E4000A9408843A101224AFC328918086205980A
:100E500000280DD0A0011E49FC314018406A012134
:100E6000A9400843A1011A4AFC32891848620CE0E3
:100E7000A0011749FC314018406A0121A94088436C
:100E8000A101134AFC3289184862069800280DD047
:100E9000A0010F49FC314018C06A0121A940084354
:100EA000A1010B4AFC328918C8620CE0A001084974
:100EB000FC314018C06A0121A9408843A101044ABD
:100EC000FC328918C8620020F0BD000000200040FC
:100ED000040C024030B50346002A0BD098010C4C9C
:100EE0000019C06801248C4020439C01084D6419FE
:100EF000E0600AE09801064C0019C06801248C40AB
:100F0000A0439C01024D6419E060002030BD000048
:100F1000000D024030B5002A01D0012300E000237B
:100F20001A46002A0BD083010B4C1B199B68012425
:100F30008C4023438401084D6419A3600AE08301B7
:100F4000054C1B199C6801238B409C438301024D77
:100F50005B199C6030BD0000000D024008B5002008
:100F6000009000BF00980028FCD008BD10B50020FC
:100F7000C046C04610BD10B50120C046C04610BDD9
:100F800010B50220C046C04610BD10B50320C046B3
:100F9000C04610BD10B5002000F04CFA10BD10B5D1
:100FA000012000F047FA10BD10B50020C046C04631
:100FB00010BD10B50020C046C04610BD10B50020C1
:100FC00000F02CF910BD10B5012000F027F910BD7C
:100FD00010B5022000F022F910BD10B50420C04663
:100FE000C04610BD10B50520C046C04610BD10B5A6
:100FF0000620C046C04610BD10B50020C046C04601
:1010000010BD10B50020C046C04610BD10B5002070
:10101000C046C04610BD10B50020C046C04610BD39
:1010200010B50120C046C04610BD10B50020C04616
:10103000C04610BD10B50020FFF726FE10BD10B54C
:101040000020C046C04610BD70B50446002529E00A
:101050000120C0032040002810D0002204210120DC
:10106000FFF758FF192000F05BFC01220421104615
:10107000FFF750FF232000F053FC0FE00022042173
:101080000120FFF747FF192000F04AFC012204214C
:101090001046FFF73FFF002000F042FC6004040C04
:1010A000681CC5B20E2DD3DB002204210120FFF7FE
:1010B00031FF192000F034FC012204211046FFF713
:1010C00029FF022000F02CFC70BD000010B5024882
:1010D000FFF7BAFF10BD000054150000FFB581B046
:1010E00007460025002400260120C00205430A9877
:1010F0008000284385B20B98C000284385B20C9825
:101100000001284385B20D988001284385B20498D8
:101110008001204384B203984002204384B20298A5
:101120004003204384B2B8120443A404A40C012059
:1011300080030443B800304386B2B604B60C0120E5
:10114000800306432846FFF77FFF2046FFF77CFF1A
:101150003046FFF779FF05B0F0BD0000FFB585B060
:1011600006460F4600240025FC2030400490FC2059
:1011700038400390FC2107980840029008980840E6
:10118000019004988001044303980443029880016D
:1011900005430198054300BF01208003044300BFBD
:1011A00005430548FFF750FF2046FFF74DFF28464F
:1011B000FFF74AFF09B0F0BD101100000146002200
:1011C000002900D1704701E0521C49080129FBD8D1
:1011D0001046F7E77047704710B5FFF7E5FA014989
:1011E000086010BDF80000201CB50220FFF7CAFB04
:1011F00001210020FFF762FAFFF7EEFF08216846A1
:1012000000F06CFB01206946487003480190684675
:10121000FFF7E2FC1CBD0000FFFFFF0010B5044615
:10122000002C04D0012C06D0022C0CD107E007487A
:101230000068804708E006480068804704E00548E9
:101240000068804700E000BF00BF10BD24010020FF
:10125000280100202C01002070B50546A81D44B2CD
:10126000204600F0ADFA0321204600F0F1FA2046B6
:10127000002809DBC206D20E01219140034A116009
:10128000BFF34F8FBFF36F8F00BF70BD80E100E0F1
:1012900010B502460020002100BF0BE014234B4391
:1012A000064CE358934203D114234B43181903E02F
:1012B0004B1CD9B20229F1D300BF10BDFC000020A5
:1012C00070B50546A81D44B2204600F079FA032106
:1012D000204600F0BDFA2046002809DB00BF00BF11
:1012E000C206D20E01219140024A116000BF00BF28
:1012F00000BF70BD00E100E070B506460D46002459
:101300003046FFF7C5FF0446002C01D1042070BD14
:10131000002D04D0012D09D0022D15D10DE06068FB
:10132000406904218843616848610FE06068406952
:10133000400840006168486108E060684069022137
:1013400088436168486101E00420E0E700BF0020B5
:10135000DDE770B506460D4600243046FFF798FFDE
:101360000446002C01D1042070BD60684068102143
:101370008843290110221140084361684860002019
:10138000F2E770B506460D4600243046FFF780FFB1
:101390000446002C01D1042070BD002D02D0012D87
:1013A00010D107E06068406802218843801C6168B2
:1013B000486009E06068406840084000401C61687F
:1013C000486001E00420E7E700BF0020E4E7F8B54B
:1013D00006460D46002700243046FFF759FF044615
:1013E000002C01D10420F8BD002D04D0012D0BD01C
:1013F000022D1BD111E0606800694007C00F012178
:1014000048404840074612E060680069C007C00FC6
:10141000012148404840074609E0606800698007AC
:10142000C00F012148404840074600E000BF00BF10
:101430003846D8E770B5054600242846FFF728FF50
:101440000446002C00D170BD606800694007C00FE1
:10145000002809D000212846FFF74EFFE068002849
:1014600001D0E0688047EEE760680069C007C00F00
:10147000002808D001212846FFF73EFF20690028F8
:1014800001D020698047606800698007C00F00288C
:1014900008D002212846FFF72FFFA068002801D0BE
:1014A000A068804700BFCEE7F8B506460C46012786
:1014B00000253046FFF7ECFE0546002D01D1042043
:1014C000F8BD002C01D10420FAE72178304600F065
:1014D0007EF807466068002804D03046616800F056
:1014E0008EF80746A068002808D0A0684168E96027
:1014F000A06881682961A0680068A860207B012835
:1015000003D13046FFF7DCFE02E03046FFF7A4FED1
:1015100000273846D4E770B506460C46002530460D
:10152000FFF7B6FE0546002D01D1042070BD022153
:101530003046FFF7E1FE6868046000BF02213046D4
:10154000FFF745FF0028F9D002213046FFF7D4FE0F
:101550000020EBE7F8B507460E4614460020009041
:1015600000253846FFF794FE0546002D01D0002CDB
:1015700001D10020F8BD6868406801214902884314
:1015800061784902012252021140084369684860AB
:101590002078002806D0012806D0022803D003288E
:1015A00011D102E000BF0FE000BF62685101627814
:1015B000521C72431046FEF7F2FD01210904081A7D
:1015C00080B2009000E000BF00BF0098D2E770B585
:1015D00006460D4600243046FFF75AFE0446002C0E
:1015E00001D1042070BD60684068C0218843A90112
:1015F000C02211400843616848600020F2E770B5DE
:1016000006460C4600253046FFF742FE0546002DF3
:1016100001D1042070BD002C13D0686840682021DF
:1016200088432178490120221140084369684860B5
:101630002078012805D1607869688860A078696899
:10164000C8600020E6E7000010B590B004460C2109
:1016500009A800F043F9032108A800F03FF9082188
:1016600006A800F03BF9142101A800F037F9002288
:1016700005210320FFF71EFB012206210320FFF7AF
:1016800019FB00BF4148C068202188433F49C8601A
:101690003F484069C008C000C01C3D4948613B4804
:1016A000006820218843394908600846006A2021E3
:1016B000884320303549086200BF00BF0846C06833
:1016C000402188433149C86031488069C008C00062
:1016D000C01C2F4988612D48006840218843403054
:1016E0002A49086000BF01210820FFF72DF90121D8
:1016F0000020FFF729F927480B9000200990264881
:101700000A9009A80E90012108A80177032101740D
:10171000002101700D900CA90020FFF7C5FE0021EB
:1017200068464176079403210176FFF791F81B493B
:10173000086006AA084601680020FFF70BFF184959
:1017400008800121684641720021017201A9002030
:10175000FEF77CFE124801880020FEF71BFE1048B1
:1017600001880020FEF744FE0020FEF767FF0121FC
:101770000020FFF706FE01210020FFF7BDFD01213B
:101780000020FFF7E6FD10B010BD0000C00D0240C4
:10179000C00C0240D5110000990C0000040000208C
:1017A0000000002030B47446641E2578641CAB42EF
:1017B00004D3635D5B00E31830BC18471D46F8E7AF
:1017C000002805DBC206D20E01219140014A1160BA
:1017D0007047000080E200E010B5002819DB1A4ACB
:1017E00003231B02D21883089B00D2588307DC0E08
:1017F000FF23A3409A438B071B0E8407E40EA340EC
:101800001A43114B032424021B198408A4001A5103
:1018100018E00E4A03071B0F083B9B089B00D25899
:101820008307DC0EFF23A3409A438B071B0E84071C
:10183000E40EA3401A43054B0407240F083CA408F8
:10184000A4001A5110BD000000E100E01CED00E012
:1018500010B5002819DB1A4A03231B02D21883088B
:101860009B00D2588307DC0EFF23A3409A438B07CB
:101870001B0E8407E40EA3401A43114B03242402D9
:101880001B198408A4001A5118E00E4A03071B0F05
:10189000083B9B089B00D2588307DC0EFF23A34024
:1018A0009A438B071B0E8407E40EA3401A43054B93
:1018B0000407240F083CA408A4001A5110BD00001E
:1018C00000E100E01CED00E000BF704710B500F043
:1018D0002DF801F04BF800F06BFF10BD10B50A4673
:1018E0000146002900D110BD02E000230B70491C05
:1018F0001346521E002BF8D100BFF4E7002106E08A
:10190000064900BF0A464B1E99B2002AFAD1024688
:10191000431E98B2002AF3D1704700001F0F000049
:1019200000BF0146401E0029FBD170470EB50121C2
:101930001C20FFF709F800200090019001231A46AF
:1019400002210290FFF712FA00200090019001237B
:101950001A4619460290FFF709FA0EBD10B502218A
:101960000020FFF79BF9002814D135480078401C6F
:101970003349087008460078FF21053188421BDD95
:1019800000202F49087002202E49087001202E499E
:10199000087011E02B48007800280DD12848007805
:1019A000142806DD00202649087001202749087008
:1019B00002E000202249087002210020FFF76EF9A2
:1019C000002804D000201E4908701E49087001211B
:1019D0000020FFF763F9002814D11D480068401C5F
:1019E0001B490860084600680321490388421BD947
:1019F0000020174908600820164908700120164980
:101A0000087011E01348007800280DD110480068D4
:101A1000142806D900200E49086001200F490870DB
:101A200002E000200A49086001210020FFF736F992
:101A3000002804D00020064908600649087010BD3F
:101A4000F2000020F0000020EC000020EE0000205A
:101A5000F4000020F1000020ED000020EF00002045
:101A600001460320012913D1134A1278012A04D117
:101A70000022114B1A7002201DE0104A1278012A30
:101A800004D100220D4B1A70012014E0002012E056
:101A90000B4A1278012A04D10022094B1A70022045
:101AA00009E0084A1278012A04D10022054B1A7075
:101AB000012000E000207047EC000020EE00002034
:101AC000ED000020EF00002070B500242EE0E217AA
:101AD000520F1219D210174B5B689A5C2046E3171D
:101AE0005B0F1B18DB10DB00E51A0123AB401A402B
:101AF000002A19D0E217520F1218D2100D4B5B6852
:101B00009A5C2146E3175B0F5B18DB10DB00E51ADC
:101B10000123AB409A43E3175B0F1B18DB10054D05
:101B20006D68EA5400F0EAFC601C84B20A2CCEDB3B
:101B300070BD00005C01002010B504460848007824
:101B4000022803D007480078012802D1204600F07F
:101B500027F803480078002801D100F005F810BDEF
:101B6000150000201400002070B50A4885690A4855
:101B7000C078002803D00848C078042802D100F0BB
:101B8000A9F901E0FFF7A0FF024884690220034998
:101B9000087070BD00E000E09C09002015000020E6
:101BA00010B50446082C00DB10BD2848C078A042C0
:101BB00001D02648C47000F0AFFC00280FD10120EE
:101BC00023490870234908702348006823490860A6
:101BD0002348806923490860012000F0FDFC1B4870
:101BE000C078000120494018406800281AD01F48DA
:101BF00001681C48006800F067FE002812D01848F1
:101C00008069184908601149C9780901164A89187C
:101C100048688047022000F0DFFC03201449487028
:101C2000002008700B48007800280DD011490B489F
:101C3000006800F03DFE002806D00748006807490C
:101C4000086000200349087000BFADE79C09002030
:101C500014000020D0000020E4000020D400002068
:101C600000E000E0D80000201C000020DC00002084
:101C700015000020B80B0000FEB5554D2846083869
:101C80008079019000200090284608380079514959
:101C90000978884207D02846083800794D490870ED
:101CA00001204D490870002649480838007901286C
:101CB00001D1282607E0464808380079022801D1DA
:101CC000142600E0012644480078002806D00020B1
:101CD00041490870414908804149087041480078ED
:101CE000002831DD002427E02146E20F521852106F
:101CF0005200A21A394B1B889A4215D1394A1078E2
:101D0000C20F121852105200821A0DD120460199AA
:101D1000FEF74FFA880047192D4908394A79A0B2D1
:101D2000396800F0FFFB06E0294908394A79A0B27A
:101D3000009900F0F7FB641C0A2CD5DB29480078D9
:101D4000401E28490870FEBD00241EE02046E10F19
:101D5000091849104900611A204A128891420CD191
:101D60000199FEF726FA88004719194908394A7976
:101D7000A0B2396800F0D6FB06E0154908394A7967
:101D8000A0B2009900F0CEFB641C0A2CDEDB1448E4
:101D9000007800280FD111480088401C0F490880A6
:101DA0000888C10F091849104900411A0B4A1180CF
:101DB00004200C4908700A480078401C0849087043
:101DC00008460078B04201D10020087000BFBAE791
:101DD000A4090020C200002014000020C000002040
:101DE000C3000020C4000020FEB5354E3046083840
:101DF0008079019000200090304608380079314900
:101E00000978884207D03046083800792D49087093
:101E100001202D490870002529480838007901283B
:101E200001D1502507E0264808380079022801D161
:101E3000282500E0142524480078002806D000203A
:101E40002149087021490880214908701F480078FD
:101E5000C007C00F002812D000240DE020460199D1
:101E6000FEF7A7F988008719154908394A79A0B201
:101E7000396800F057FB641C0A2CEFDB0BE00024F0
:101E800007E00F4908394A79A0B2009900F04AFBEF
:101E9000641C0A2CF5DB0E480078002804D10B489E
:101EA0000088401C0949088009480078401C0849FE
:101EB000087008460078A84201D100200870FEBDD5
:101EC000A4090020C800002014000020C600002043
:101ED000C900002010B5002404E0204600F00EFBED
:101EE000601C84B20A2CF8DB10BD0000F0B585B090
:101EF0003D4D284608388079039000260027284663
:101F00000838007939490978884207D028460838C6
:101F10000079364908700120354908703448007846
:101F2000002806D000203249087032490870324932
:101F3000087031490978715C2B4A083A527951434B
:101F40000846FF21FEF735F9C0B20290791E2A4AF1
:101F50001278891A715C244A083A5279514308462A
:101F6000FF21FEF726F9C0B2019000241BE02046B5
:101F70000399FEF71EF9880040190090A0B2029A5A
:101F80000099096800F0CEFA601C0399FEF711F978
:101F900088004019611C009088B2019A0099096874
:101FA00000F0C0FAA41C0A2CE1DB124800780028DB
:101FB0000CD111480078401C0F490870781E097830
:101FC00088420ED101200B4908700AE00A480078C7
:101FD000401E0949087008460078002801D10549CB
:101FE000087005B0F0BD0000A4090020B600002074
:101FF00014000020B7000020B8000020FEB52E4ECF
:1020000030460838807902900020019000903046D8
:102010000838007929490978884207D030460838BD
:102020000079264908700120254908702448007865
:10203000002806D000202249087022490870224951
:102040000870214A12780199895C1B4A083A527932
:1020500051430846FF21FEF7ACF8C5B200240BE05F
:1020600020460299FEF7A5F888008719A0B22A46F3
:10207000396800F057FA641C0A2CF1DB114800782B
:1020800000280DD110480078401C0F4908700098B6
:10209000401E097888420ED101200A4908700AE0E2
:1020A00009480078401E0849087008460078002852
:1020B00001D104490870FEBDA4090020B900002028
:1020C00014000020BA000020BB000020F8B5134D1A
:1020D00028460838867912480078002804D0002065
:1020E0000F4908700F4908700E480078002814D175
:1020F00001200C49087000240DE031462046FEF70F
:1021000058F888004719054908394A79A0B2396852
:1021100000F008FA641C0A2CEFDBF8BDA4090020CB
:1021200014000020B0000020FEB5584D28460838A5
:1021300086795748C068019056480078002802D038
:102140000020544908705448006800282CD100240D
:1021500028E000BF5149098889B2514A51434F4A8A
:102160001268120C89184D4A11604E49098889B2CB
:102170004D4A51434B4A1268120C8918494A116062
:10218000114609880904454A12688818474989692F
:1021900041400F460A213846FEF701F86000444AE4
:1021A0001152641C642CD4DB67E0012731463A48A5
:1021B0000068FDF7FEFF8800401900680090344970
:1021C0000098C968884201D1FF200190002412E0E4
:1021D00060003749085A3049096888420AD12B49BA
:1021E00008394A792C49098888B2019900F09AF98E
:1021F000002702E0641C642CEADB00BF002F08D03B
:10220000224908394A792449098888B2009900F09E
:1022100089F921480068401C1F4908601B4808389C
:10222000007901280BD10A211B480068FDF7C1FF86
:10223000002921D1184800680A281DDAFEBD13487C
:102240000838007902280BD1282113480068FDF7CF
:10225000B0FF002910D1104800680A280CDAEDE719
:1022600050210D480068FDF7A4FF002904D10A4859
:1022700000680A2800DAE1E700BF074800680A287A
:1022800093DB00200449086000BFD7E7A4090020C1
:102290003C2B000014000020CC0000209C000020FB
:1022A00050460000A00000206990000000E000E01F
:1022B000140A0020FEB54D4D28460838807902905A
:1022C00000200190002628460838007948490978FE
:1022D000884207D02846083800794549087001200F
:1022E0004449087043480078002808D0002041493C
:1022F0000870414908704149087041490870711ED1
:102300003E4A12788A1A0199895C384A083A527909
:1023100051430846FF21FDF74CFFC7B200243BE0C4
:102320003748007800281BD120460299FDF741FF6D
:10233000880040190090A0B23A460099096800F060
:10234000F1F8601C0299FDF734FF88004019611C08
:10235000009088B200220099096800F0E3F81AE0C2
:1023600020460299FDF725FF880040190090A0B291
:1023700000220099096800F0D5F8601C0299FDF769
:1023800018FF88004019611C009088B23A460099F5
:10239000096800F0C7F8A41C0A2CC1DB16480078B5
:1023A00000280CD115480078401C14490870701E94
:1023B0000978884219D101200F49087015E00F48AB
:1023C0000078401E0D4908700846007800280CD19E
:1023D000094908700A480078401C094908700846F5
:1023E0000078022801D100200870FEBDA409002059
:1023F000BC00002014000020BD000020BE00002012
:10240000BF000020FEB5384E304608388079019074
:102410000020009030460838007934490978884215
:1024200007D030460838007930490870012030491B
:10243000087000252C4808380079012801D164254E
:1024400007E0294808380079022801D13C2500E03E
:10245000142527480078002806D000202449087059
:10246000244908802449087000241EE02046E10F1A
:10247000091849104900611A1E4A128891420CD16C
:102480000199FDF796FE88008719174908394A799E
:10249000A0B2396800F046F806E0134908394A79D5
:1024A000A0B2009900F03EF8641C0A2CDEDB124852
:1024B000007800280CD10F480088401C0D49088086
:1024C0000888C10F091849104900411A094A1180AA
:1024D00009480078401C0849087008460078A8425E
:1024E00001D100200870FEBDA4090020B400002026
:1024F00014000020B2000020B500002010B50446F2
:10250000044A9268A300D118621C90B200F09AF9B4
:1025100010BD00005C0100200148007870470000F9
:102520005C010020F7B584B00446154600200390F6
:102530006946097D69430846FF21FDF73AFEC6B2A8
:1025400069460E73497D69430846FF21FDF731FE58
:10255000C0B202906946897D69430846FF21FDF7B4
:1025600028FEC0B201906946C97D69430846FF2133
:10257000FDF71FFEC0B200906946029848730198AB
:1025800088730098C87313488068A1004058039965
:1025900088421DD02046E217520F1218D2100D4B60
:1025A0005B689A5C2146E3175B0F5B18DB10DB006E
:1025B000E71A0123BB401A43E3175B0F1B18DB101C
:1025C000044F7F68FA54034903988968A200885031
:1025D00007B0F0BD5C010020042800DB7047024911
:1025E000087000BFFAE700005C0100201FB500255D
:1025F00000F088F900F0CAF9FFF768F94B20C00134
:10260000FFF722F800BF00BF00BF00BF00BF00BF40
:10261000002005E000218200614B9950411C88B2E6
:10262000C828F7DB19204001FFF768F903200022D2
:102630000123029000930192039006230F220121AF
:102640000020FEF74BFD00231A4619461846FEF7F8
:1026500085FDFEF73BFD0120FFF750F90320002226
:102660000123029000930192039006230F2201217F
:102670004C48FEF733FD0120FFF740F90120FFF73A
:102680003DF90120FFF73AF988E000F093F900F0F6
:1026900047F9FFF763F9444801780020FEF73BFF54
:1026A0000120FFF7DDF906460220FFF7D9F90446BD
:1026B000012C00D10125012E0BD101253A480078CB
:1026C000401C39490870084600780F2801DD0020B9
:1026D0000870012C0BD1012534480078401C334987
:1026E000087008460078042801DD00200870002DDD
:1026F00053D000252D480078032838DA0320002223
:10270000012302900093019203900423264802784B
:1027100001212448FEF7E2FC24480078002806D076
:1027200001280BD0022810D003281CD114E000236C
:102730001A461946FF20FEF711FD14E000231A4641
:10274000FF211846FEF70AFD0DE00023FF2219467F
:102750001846FEF703FD06E0FF231A461946184601
:10276000FEF7FCFC00BF00BFFEF7B0FC15E0032045
:1027700000220123029000930192039003460A482D
:10278000027801210748FEF7A9FC0023FF22114629
:102790001046FEF7E3FCFEF799FC00BF75E700006A
:1027A00068010020AAAA00000A0000200B000020F7
:1027B00010B501211C20FEF7C7F8002204210120DA
:1027C000FEF778FA002203211046FEF773FA012281
:1027D00004211046FEF79EFB002203211046FEF75F
:1027E00099FB10BD70B504460D46002627E0E007B2
:1027F000C00F002810D0002204210120FEF78AFB20
:102800001820FFF78DF8012204211046FEF782FB05
:102810000D20FFF785F80FE0002204210120FEF7CC
:1028200079FB0920FFF77CF8012204211046FEF70E
:1028300071FB0220FFF774F86410701CC6B2AE4240
:10284000D5DB70BD70B505460C4602210320FFF7AD
:10285000C9FFE8B20821FFF7C5FF28120121FFF7E1
:10286000C1FF2078641C0821FFF7BCFF2078641C9E
:102870000821FFF7B7FF2078641C0821FFF7B2FF9B
:102880002078641C0821FFF7ADFF002204210120FD
:10289000FEF740FB3620FFF743F8012204211046E3
:1028A000FEF738FB0120FFF73BF8FFF757F870BD44
:1028B000024604480068801A884201D3012070470C
:1028C0000020FCE7E400002010B502460B460B4850
:1028D000816900248A420ED08A4201D9541A02E04A
:1028E0000748401A841818205843A04201D80120F4
:1028F00010BD0020FCE70020FAE7000000E000E047
:10290000FFFFFF0008B50620FEF73CF800216846EF
:102910000170012141708170FDF7AAFF08BD000020
:1029200010B50E490E480068FFF7CEFF002814D0FE
:102930000C4880690A4908600B480478E00F0019C8
:1029400040104000201AC2B204210320FEF7E2FA30
:1029500005480078401C0449087010BD20A10700FC
:102960001000002000E000E00C00002010B5012164
:102970001C20FDF7E9FF002204210320FEF79AF94D
:10298000002204210320FEF7C5FA10BD10B5FDF7A3
:102990000BFF05490860054805494861002088612A
:1029A0000520086110BD0000E0000020FFFFFF00CF
:1029B00000E000E070B50025002400261A48856973
:1029C0001A480068A8422ED018480068A84203D9C7
:1029D00016480068441B04E01548401B1349096869
:1029E0004418144884421ED301462046FDF7D7FB05
:1029F000064630460F49484304460F480068801990
:102A00000D49086009480068A04205D307480068DE
:102A1000001B0649086006E00548001B03490968D9
:102A200040180249086070BD00E000E0E8000020A6
:102A3000FFFFFF00C05D0000E40000200001010175
:102A40000101010101010101010101010101010176
:102A50000101010101010101010101010101010166
:102A60000202020202020202020203030303030340
:102A70000304040404040505050505060606060707
:102A8000070707080808080909090A0A0A0B0B0CB6
:102A90000C0C0D0D0D0E0E0F0F1010111112121344
:102AA0001314141515161617181819191A1B1B1CB0
:102AB0001D1D1E1F1F2021222223242526262728F4
:102AC000292A2B2B2C2D2E2F30313233343536370B
:102AD00038393A3B3C3E3F404142434446474849EF
:102AE0004B4C4D4E50515254555758595B5C5E5F9C
:102AF0006162646567686A6C6D6F7072747577790E
:102B00007B7C7E8082838587898B8D8F919395973F
:102B1000999B9D9FA1A3A5A7A9ABADB0B2B4B6B92F
:102B2000BBBDC0C2C4C7C9CBCED0D3D5D8DADDDFD8
:102B3000E2E4E7EAECEFF2F4F7FAFDFF00FF000051
:102B40000000BE00000000BE00FFAA4B00FFBE0058
:102B50000000BE5A00FF005A00FF64000000BE15CE
:102B60000000000001000000FF0000000000000065
:102B70000000000000000000000000000000000055
:102B80000100000000FF0000000000000000000045
:102B90000000000000000000000000000100000034
:102BA00000DA133B000000000000000000000000FD
:102BB00000000000000000000100000000FF9F7AFC
:102BC0000000000000000000000000000000000005
:102BD000000000000100000000FFA5000000000050
:102BE00000000000000000000000000000000000E5
:102BF0000100000000FFD400000000000000000001
:102C000000000000000000000000000001000000C3
:102C100000FFFF00000000000000000000000000B6
:102C20000000000000000000010000000000FF00A4
:102C30000000000000000000000000000000000094
:102C40000000000001000000003EDFCF0000000097
:102C50000000000000000000000000000000000074
:102C6000010000000000FFFF000000000000000065
:102C70000000000000000000000000000100000053
:102C80000086CDE900000000000000000000000008
:102C9000000000000000000001000000000000FF34
:102CA0000000000000000000000000000000000024
:102CB000000000000100000000A021EF0000000063
:102CC0000000000000000000000000000000000004
:102CD0000100000000FF00FF0000000000000000F5
:102CE00000000000000000000000000001000000E3
:102CF00000FFBECB0000000000000000000000004C
:102D0000000000000000000001000000009F7FFFA5
:102D100000000000000000000000000000000000B3
:102D2000000000000200000000FF000000FFFFFFA5
:102D30000000000000000000000000000000000093
:102D40000200000000FF00000000BE0000000000C4
:102D50000000000000000000000000000300000070
:102D6000000000FF0000808000A021EF00000000B4
:102D700000000000000000000300000000FF000051
:102D8000FF0000000000BE00000000000000000086
:102D9000000000000500000000FF00000000BE0071
:102DA000000000FF00FFFF0000FFA5000000000082
:102DB00002000000FF00000000FFFFFF0000000015
:102DC0000000000000000000000000000300000000
:102DD00000FF000000A021EF00FFA50000000000A0
:102DE00000000000000000000300000000FF0000E1
:102DF00000FFFFFF000000FF0000000000000000D7
:102E00000000000000800000009600002C2E000052
:102E10000000002034010000580300008C2E000048
:102E2000340100200C0C000004010000B104140F58
:102E30000001B3CD204201B305244202B3ED1E428E
:102E400003B3FD1F4204B3B5224205B3791C420609
:102E5000B3E91D4207B32921338F3033EECC5DC86F
:102E60009664503C2D1E140A050201340200023201
:102E70000262026202021402B31027F4FFFFFF9302
:0C2E8000093DD2405201041D0100400039
:04000005000000C136
:00000001FF
