:020000040000FA
:1000000070020020650100007F0100006D0D0000FE
:1000100000000000000000000000000000000000E0
:10002000000000000000000000000000830100004C
:1000300000000000000000008501000087010000B2
:100040007D0D0000870D0000910D00009B0D00004C
:100050008901000089010000A50D0000AF0D00001E
:100060008901000089010000B90D0000890100002C
:10007000C30D000089010000CD0D0000D70D000068
:10008000E10D000089010000EB0D0000F50D0000FE
:10009000FF0D0000090E0000130E00008901000092
:1000A0001D0E000089010000270E0000310E000027
:1000B0003B0E000089010000450E00004F0E0000BD
:1000C00000F002F800F03EF80CA030C80838241800
:1000D0002D18A246671EAB4654465D46AC4201D180
:1000E00000F030F87E460F3E0FCCB6460126334274
:1000F00000D0FB1AA246AB4633431847800E0000DF
:10010000A00E0000103A02D378C878C1FAD852077E
:1001100001D330C830C101D504680C6070470000BD
:100120000023002400250026103A01D378C1FBD813
:10013000520700D330C100D50B6070471FB51FBDFB
:1001400010B510BD00F03DF81146FFF7F7FF00F0C5
:1001500001FF00F055F803B4FFF7F2FF03BC00F015
:10016000E7FE00000C480D4A002100A1814200D9A1
:1001700002440B4802600B4880470B480047FEE7EB
:10018000FEE7FEE7FEE7FEE7FEE700000748084956
:10019000064A084B704700000000002000000000E5
:1001A00008ED00E0690E0000C100000070000020B2
:1001B0007002002070000020704770477047704741
:1001C0007047754600F024F8AE4605006946534670
:1001D000C008C000854618B020B5FFF7D7FF60BC47
:1001E00000274908B6460026C0C5C0C5C0C5C0C561
:1001F000C0C5C0C5C0C5C0C5403D49008D4670479B
:1002000010B50446C046C0462046FFF7A4FF10BD07
:10021000004870470C0000200248034988600348EA
:10022000886070475A5A000000200040A5A50000D1
:10023000034800680F21C9028843014908607047DC
:100240000020004070B505460C460026FFF7E4FF8D
:10025000002C01D0012000E000200446002D34D005
:10026000012D0CD0022D3AD120480068042188438A
:10027000A1000422114008431C49086033E01C48D7
:10028000C0680221884361000222114008431849D6
:10029000C8600846C06804218843A10004221140B8
:1002A00008431349C86011480069000900010F3074
:1002B0000E49086108460068022188436100022255
:1002C00011400843094908600DE0084800684008EB
:1002D0004000E107C90F08430449086003E0FFF745
:1002E000A7FF042600BF00BF304670BD00200040BD
:1002F000000D02401EB50020002120A31B680293C0
:100300001F4C18CC019400931E4B1B689B069A0F40
:10031000002A04D0012A23D0022A23D116E0194B47
:10032000DB680324640223405B0A02ACE05C164BEA
:100330005843164B984208D1154B5988114BDB682E
:100340005B055B0D8B4200D112480DE00D4B5B69E4
:100350000124640223405B0A9B006C46E05803E0E2
:100360000D4801E0002000BF00BF064B1B68DB0505
:100370005C0F0346E34018461EBD00000408101839
:10038000740F00000020004040420F0000366E0154
:10039000000C1000408651010048E80110B50146EC
:1003A00000208A1E130000F079FD0504101C28347B
:1003B0004000204B1B895A05520D1F4BDB68DB0A9E
:1003C000DB0213431C4CE36031E01A4BDB885A0517
:1003D000520D194BDB68DB0ADB021343164CE3605A
:1003E00025E0144B9B885A05520D134BDB68DB0A42
:1003F000DB021343104CE36019E00E4B5B885A0597
:10040000520D0D4BDB68DB0ADB0213430A4CE36041
:100410000DE0084B1B885A05520D074BDB68DB0AC1
:10042000DB021343044CE36001E0042000BF00BF83
:1004300010BD0000000C10000020004010B5044664
:10044000002C01D1042010BD2648006A01210906B4
:1004500088434018234908622078002804D00128E6
:1004600018D002281FD10AE01E48406B03218906DC
:1004700088430121C90640181A49486315E0194804
:10048000406B0321890688430121890640181549DC
:1004900048630AE01348406B0321890688434018EB
:1004A0001049486301E00420CDE700BF0D48406BD0
:1004B000012149068843617849060122520611400C
:1004C0000843084948636068401E074948610321A2
:1004D000081F00F0F1FC0020034988610120086139
:1004E0000020B0E70020004000E000E010B5044626
:1004F00001480068804710BD0800002010B50020AA
:1005000000F05EF901280BD1002000F0C5F80D487D
:100510000068012108430B490860002000F0FCF846
:10052000012000F04DF901280AD100F0B5F8054886
:1005300000680221084303490860012000F0ECF83C
:1005400010BD000004000020F8B501251F4C112645
:100550001F4F2048009000211F4800F049F9204615
:1005600000F064FA3146204600F0C6FA0546002D38
:1005700005D12078B04200D104E02846F8BD01251D
:100580002846FBE7A41C3946204600F01BFB054625
:10059000002D05D12088B84200D103E02846EDE7C0
:1005A0002846EBE7A41D2046009900F075FB0546A0
:1005B000002D06D121680098814200D103E0284631
:1005C000DCE72846DAE72846D8E70000F03F0000DD
:1005D0002222000033333333FD04000000202A4977
:1005E000C96A090C0904294A8918274AD1621146A7
:1005F000C96A090C0904264A8918234AD16211469E
:10060000096B090C0904234A89181F4A116300BFAA
:100610001D49096AC906C90F0029F9D11A49C96AD1
:10062000090C0904194A8918174AD1621146C96A86
:10063000090C0904164A8918134AD1621146096A3D
:1006400089088900C91C11620021097000BF0E4988
:10065000096AC906C90F0029F9D10B49C96A090CF1
:1006600009040A4A8918084AD1621146C96A090C64
:100670000904074A8918044AD1621146096B090C1A
:100680000904116370470000000002405A5A00003C
:10069000A5A50000FFFF000001460120002902D0AF
:1006A00001292FD116E0194AD26A120C1204184BF4
:1006B000D218164BDA621A46D26A120C1204154B83
:1006C000D218124BDA621A46926A520852009A62A3
:1006D000002019E00D4AD26A120C12040C4BD218F9
:1006E0000A4BDA621A46D26A120C1204094BD2186B
:1006F000064BDA621A46926A02239A43034B9A62C5
:10070000002001E0012000BF00BF70470000024050
:100710005A5A0000A5A5000010B501460120002985
:1007200002D0012942D120E0224AD26A120C1204DE
:10073000214BD2181F4BDA621A46D26A120C1204ED
:100740001E4BD2181B4BDA621B6A5B069B0F0224FE
:10075000A3435B01602423401A46164B1B6AA34344
:100760001343144C2362002022E0124AD26A120C76
:100770001204114BD2180F4BDA621A46D26A120CCD
:1007800012040E4BD2180B4BDA621B6A5B069B0FEE
:100790005B085B005B01602423401A46054B1B6A23
:1007A000A3431343034C2362002001E0012000BF58
:1007B00000BF10BD000002405A5A0000A5A500006D
:1007C00001460020002902D001290AD104E0074A8D
:1007D000526AD007C00F06E0044A526A9207D00F4F
:1007E00001E0002000BF00BF704700000000024091
:1007F00010B502460020032901DD042010BD854B01
:10080000DB6A1B0C1B04844C1B19824CE3622346DD
:10081000DB6A1B0C1B04814C1B197E4CE3622346D4
:100820001B685B0A5B0220248C40E405E40D234333
:10083000784C23602346DB6A1B0C1B04764C1B1987
:10084000744CE3622346DB6A1B0C1B04734C1B19BC
:10085000704CE36223465B681B0A1B0217248C4022
:10086000E4B223436B4C63602346DB6A1B0C1B041E
:10087000694C1B19674CE3622346DB6A1B0C1B04A3
:10088000664C1B19634CE36223469B681B0A1B02E0
:100890001B248C40E4B223435E4CA3602346DB6AF6
:1008A0001B0C1B045C4C1B195A4CE3622346DB6A8D
:1008B0001B0C1B04594C1B19564CE3622346DB6886
:1008C0009B0C9B04564C8C40A403A40B2343514C1B
:1008D000E3602346DB6A1B0C1B044F4C1B194D4C79
:1008E000E3622346DB6A1B0C1B044C4C1B19494C6E
:1008F000E36223461B695B0D5B054A4C8C40E402B6
:10090000E40A2343434C23612346DB6A1B0C1B048C
:10091000414C1B193F4CE3622346DB6A1B0C1B0452
:100920003E4C1B193B4CE36223465B691B0B1B03CC
:1009300018248C402405240D2343364C6361234640
:10094000DB6A1B0C1B04344C1B19324CE36223463C
:10095000DB6A1B0C1B04314C1B192E4CE362234633
:100960009B691B0B1B03F0248C402405240D23439F
:10097000284CA3612346DB6A1B0C1B04264C1B1965
:10098000244CE3622346DB6A1B0C1B04234C1B191B
:10099000204CE3622346DB695B0B5B037D24E400B0
:1009A0008C40E404E40C23431A4CE361032917D17F
:1009B0002346DB6A1B0C1B04174C1B19154CE36206
:1009C0002346DB6A1B0C1B04144C1B19114CE362FD
:1009D00023461B6A0424A3431B1D0E4C236215E00F
:1009E0000C4BDB6A1B0C1B040B4C1B19094CE36200
:1009F0002346DB6A1B0C1B04084C1B19054CE362E5
:100A000023461B6A0424A343024C2362064B1A604C
:100A100000BFF3E6000002405A5A0000A5A50000FE
:100A200050460000E022020008000020014600209D
:100A30002C4A914201D9042070472B4AD26A120CE9
:100A400012042A4BD218284BDA621A46D26A120CC8
:100A50001204274BD218244BDA621A46126B120C7E
:100A60001204244BD218204B1A6300BF1E4A126A8C
:100A7000D206D20F002AF9D11B4AD26A120C1204F4
:100A80001A4BD218184BDA621A46D26A120C1204A8
:100A9000174BD218144BDA621A46126A9208920067
:100AA000921C1A6200220A7000BF0F4A126AD20614
:100AB000D20F002AF9D10C4AD26A120C12040B4B45
:100AC000D218094BDA621A46D26A120C1204084B89
:100AD000D218054BDA621A46126B120C12041A6312
:100AE00000BFA9E7FF7F0000000002405A5A000043
:100AF000A5A50000FFFF000010B5024600202C4B0A
:100B00009A4201D9042010BD2A4BDB6A1B0C1B043E
:100B1000294C1B19274CE3622346DB6A1B0C1B0480
:100B2000264C1B19234CE36223461B6B1B0C1B0436
:100B3000234C1B191F4C236300BF1E4B1B6ADB0693
:100B4000DB0F002BF9D11B4BDB6A1B0C1B041A4C6F
:100B50001B19184CE3622346DB6A1B0C1B04174C61
:100B60001B19144CE36223461B6A9B089B005B1C09
:100B70002362117000BF0F4B1B6ADB06DB0F002BDB
:100B8000F9D10C4BDB6A1B0C1B040B4C1B19094CD9
:100B9000E3622346DB6A1B0C1B04084C1B19054C43
:100BA000E36223461B6B1B0C1B04236300BFAAE7F5
:100BB000FF7F0000000002405A5A0000A5A5000077
:100BC000FFFF000010B5024600202E4B9A4203D8CA
:100BD000D307DB0F002B01D0042010BD2A4BDB6AAA
:100BE0001B0C1B04294C1B19274CE3622346DB6AB0
:100BF0001B0C1B04264C1B19234CE36223461B6B66
:100C00001B0C1B04234C1B191F4C236300BF1E4BE2
:100C10001B6ADB06DB0F002BF9D11B4BDB6A1B0CBD
:100C20001B041A4C1B19184CE3622346DB6A1B0C8D
:100C30001B04174C1B19144CE36223461B6A9B08C8
:100C40009B005B1C2362118000BF0F4B1B6ADB06FD
:100C5000DB0F002BF9D10C4BDB6A1B0C1B040B4C7C
:100C60001B19094CE3622346DB6A1B0C1B04084C6E
:100C70001B19054CE36223461B6B1B0C1B042363EF
:100C800000BFAAE7FF7F0000000002405A5A0000A0
:100C9000A5A50000FFFF000010B5024600202E4B66
:100CA0009A4203D893079B0F002B01D0042010BD5C
:100CB0002A4BDB6A1B0C1B04294C1B19274CE362D3
:100CC0002346DB6A1B0C1B04264C1B19234CE362D6
:100CD00023461B6B1B0C1B04234C1B191F4C23634B
:100CE00000BF1E4B1B6ADB06DB0F002BF9D11B4B31
:100CF000DB6A1B0C1B041A4C1B19184CE3622346BD
:100D0000DB6A1B0C1B04174C1B19144CE3622346B3
:100D10001B6A9B089B005B1C2362116000BF0F4B8A
:100D20001B6ADB06DB0F002BF9D10C4BDB6A1B0CBB
:100D30001B040B4C1B19094CE3622346DB6A1B0C9A
:100D40001B04084C1B19054CE36223461B6B1B0C50
:100D50001B04236300BFAAE7FF7F000000000240DE
:100D60005A5A0000A5A50000FFFF000008B50020AA
:100D7000009000BF00980028FCD008BD10B50020EE
:100D8000C046C04610BD10B50120C046C04610BDCB
:100D900010B50220C046C04610BD10B50320C046A5
:100DA000C04610BD10B50020C046C04610BD10B5ED
:100DB0000120C046C04610BD10B50020C046C04648
:100DC00010BD10B50020C046C04610BD10B50020B3
:100DD000C046C04610BD10B50120C046C04610BD7B
:100DE00010B50220C046C04610BD10B50420C04654
:100DF000C04610BD10B50520C046C04610BD10B598
:100E00000620C046C04610BD10B50020C046C046F2
:100E100010BD10B50020C046C04610BD10B5002062
:100E2000C046C04610BD10B50020C046C04610BD2B
:100E300010B50120C046C04610BD10B50020C04608
:100E4000C04610BD10B50020FFF750FB10BD10B517
:100E50000020C046C04610BD10B5FFF74BFA01494F
:100E6000086010BD000000201CB50220FFF796FAB4
:100E700001210020FFF7E6F9FFF7EEFF08216846A1
:100E800000F058F801206946487003480190684610
:100E9000FFF7D4FA1CBD0000FFFFFF0030B474461A
:100EA000641E2578641CAB4204D3635D5B00E318C9
:100EB00030BC18471D46F8E710B5002819DB1A4A60
:100EC00003231B02D21883089B00D2588307DC0E31
:100ED000FF23A3409A438B071B0E8407E40EA34015
:100EE0001A43114B032424021B198408A4001A512D
:100EF00018E00E4A03071B0F083B9B089B00D258C3
:100F00008307DC0EFF23A3409A438B071B0E840745
:100F1000E40EA3401A43054B0407240F083CA40821
:100F2000A4001A5110BD000000E100E01CED00E03B
:100F300000BF704710B50A460146002900D110BD18
:100F400002E000230B70491C1346521E002BF8D1FF
:100F500000BFF4E708B500200090FFF73FFBFFF764
:100F6000F3FA002804D0694608780121084300906C
:100F700000BFFEE700800000009600009C0F00000C
:100F8000000000200C00000004010000A80F000079
:100F90000C000020640200002001000000093D0058
:080FA000000000000000000049
:04000005000000C136
:00000001FF
