:020000040000FA
:10000000B8030020750100008F010000910F00006F
:1000100000000000000000000000000000000000E0
:10002000000000000000000000000000930100003C
:100030000000000000000000950100009701000092
:10004000B10F0000BB0F0000C50F0000CF0F000074
:100050009901000099010000D90F0000E30F000092
:100060009901000099010000ED0F000099010000C6
:10007000F70F000099010000011000000B100000B4
:1000800015100000990100001F1000002910000049
:10009000331000003D1000004710000099010000DF
:1000A00051100000990100005B1000006510000075
:1000B0006F1000009901000079100000831000000B
:1000C00000F002F800F046F80CA030C808382418F8
:1000D0002D18A246671EAB4654465D46AC4201D180
:1000E00000F038F87E460F3E0FCCB646012633426C
:1000F00000D0FB1AA246AB46334318471419000040
:1001000034190000103A02D378C878C1FAD85207DF
:1001100001D330C830C101D504680C6070470000BD
:100120000023002400250026103A01D378C1FBD813
:10013000520700D330C100D50B60704710B5752948
:1001400002D100F08DF810BD002010BD1FB51FBDFD
:1001500010B510BD00F0F5F91146FFF7F7FF01F0FB
:1001600091FB00F00DFA03B4FFF7F2FF03BC01F0BE
:1001700059FB00000C480D4A002100A1814200D922
:1001800002440B4802600B4880470B480047FEE7DB
:10019000FEE7FEE7FEE7FEE7FEE700000748084946
:1001A000064A084B704700000000002000000000D5
:1001B00008ED00E021110000C1000000B80100209E
:1001C000B8030020B8010020704700000FB41CB530
:1001D000074B06AA7B4469460090059800F085F914
:1001E0000020694600F094F91CBC08BC04B0184714
:1001F00039030000F8B50E46044600202062204670
:10020000E1688847002829D0252802D06268A168C3
:1002100020E0E16820460027884705001ED02846D8
:100220004138192802D80127FF02203532462046DE
:1002300027602946FFF782FF002808D0012804D054
:10024000F61DF608F6000836D9E7361DD7E76268CE
:100250002846A1689047206A401CCFE7206AF8BD75
:10026000F7B5002575291068009914A611D0C0466D
:10027000C046002802DA404211A608E00099096849
:100280008A0701D50FA602E0490704D50EA601256D
:1002900001E0C046C046009F0024243704E000F07F
:1002A0003CF930313955641C0028F8D12B463246D0
:1002B0002146009800F0BBF8FEBD000000000000E1
:1002C0002D0000002B000000200000000022030988
:1002D0008B422CD3030A8B4211D300239C464EE061
:1002E00003460B433CD4002243088B4231D303091D
:1002F0008B421CD3030A8B4201D394463FE0C309CF
:100300008B4201D3CB01C01A524183098B4201D3E6
:100310008B01C01A524143098B4201D34B01C01AD1
:10032000524103098B4201D30B01C01A5241C30849
:100330008B4201D3CB00C01A524183088B4201D3B8
:100340008B00C01A524143088B4201D34B00C01AA4
:100350005241411A00D201465241104670475DE0B9
:10036000CA0F00D04942031000D34042534000223C
:100370009C4603098B422DD3030A8B4212D3FC22E5
:10038000890112BA030A8B420CD3890192118B4264
:1003900008D3890192118B4204D389013AD092117A
:1003A00000E08909C3098B4201D3CB01C01A524135
:1003B00083098B4201D38B01C01A524143098B42FE
:1003C00001D34B01C01A524103098B4201D30B01E7
:1003D000C01A5241C3088B4201D3CB00C01A52410C
:1003E00083088B4201D38B00C01A5241D9D24308F3
:1003F0008B4201D34B00C01A5241411A00D2014630
:10040000634652415B10104601D34042002B00D599
:100410004942704763465B1000D3404201B500205B
:10042000C046C04602BD7047704770477047FFB571
:1004300004460D4681B0243000902168880604D51A
:100440001022E0699143216000E00120A84201DD13
:10045000471B00E000270498A1697A191018081AB0
:10046000A0612078C00602D42046C046C0460026BF
:1004700008E003986268A168805D9047206A401C8C
:10048000761C206204988642F3DB2078C0060AD5E9
:100490002046C046C04606E06268A168302090470A
:1004A000206A401C206238467F1E0028F4DC07E0EA
:1004B00000986268A168405D9047206A401C2062F5
:1004C00028466D1E0028F3DC2046C046C046207832
:1004D000000602D5022005B0F0BD0120FBE70000B8
:1004E00001694A1C02610878704700B58FB002911B
:1004F0000021059105490193794403911146049027
:100500006846FFF777FE0FB000BD0000E5FFFFFF74
:100510000A681070521C0A60704701468008081A69
:1005200002091018020A1018020C1018C0088200E4
:1005300012185200891A01E0401C0A390A29FBD21C
:100540007047754600F024F8AE46050069465346EC
:10055000C008C000854618B020B5FFF71FFE60BC7C
:1005600000274908B6460026C0C5C0C5C0C5C0C5DD
:10057000C0C5C0C5C0C5C0C5403D49008D46704717
:1005800010B50446C046C0462046FFF7ECFD10BD3E
:10059000004870475801002010B504462648006AFC
:1005A0004007C00F00280CD024484068002802D023
:1005B0002249486880472048406A042188431E49F0
:1005C00048621D48006A8007C00F00280CD01B48F5
:1005D0008068002802D01949886880471648406A18
:1005E00002218843144948621348006AC007C00FBB
:1005F00000280CD01148C068002802D00F49C868F4
:1006000080470D48406A400840000B4948620A484C
:10061000006A0007C00F00280CD0084800680028B6
:1006200002D00649086880470348406A0821884389
:100630000149486210BD00004024004088000020AD
:1006400070B50646301FC4B2A0025049451888153F
:100650004059C007C00F00280DD0A0014C490858D0
:10066000002803D0A1014A4A505880470121C943BC
:10067000FF2005304151FF20013040598007C00F55
:1006800000280FD0A001424940184068002804D03B
:10069000A1013F4A8918486880470221C943FF20C9
:1006A00005304151FF20013040594007C00F00285C
:1006B0000FD0A001364940188068002804D0A1015D
:1006C000334A8918886880470421C943FF200530D0
:1006D0004151FF20013040590007C00F00280FD0C2
:1006E000A0012B494018C068002804D0A101284A65
:1006F0008918C86880470821C943FF200530415147
:10070000FF20013040594006C00F00280FD0A00143
:100710001F4940188069002804D0A1011C4A89188B
:10072000886980474021C943FF2005304151FF209F
:10073000013040590006C00F00280FD0A001144915
:100740004018C069002804D0A101114A8918C8695D
:1007500080478021C943FF2005304151FF200130EF
:100760004059C005C00F00280ED0A001084940180C
:10077000006A002804D0A101054A8918086A804748
:100780000449FF200530415170BD00000030004099
:1007900098000020FFFEFFFF10B502460020002A4F
:1007A00004D0012A0BD0022A1DD111E0104B1B6886
:1007B0001B0C1B048CB223430D4C236015E00C4B27
:1007C0001B6A1B0C1B048CB22343094C23620CE0F4
:1007D000074B40331B681B0C1B048CB22343044C97
:1007E0004034236001E0012000BF00BF10BD0000C5
:1007F000000C004010B502460020002A04D0012A57
:100800000BD0022A1DD111E0104B5B681B0C1B049E
:100810008CB223430D4C636015E00C4B5B6A1B0CE0
:100820001B048CB22343094C63620CE0074B40333A
:100830005B681B0C1B048CB22343044C4034636084
:1008400001E0012000BF00BF10BD0000000C00400F
:1008500030B502460020002A04D0012A4AD0022ADC
:100860007ED191E0724BDB6801246402A3430C78D3
:10087000640201256D022C4023436D4CE360234646
:10088000DB68A415A3434C7824026D102C4023434D
:10089000674CE3602346DB687024A3438C78240113
:1008A00070252C402343624CE3602346DB68082418
:1008B000A343CC78E40008252C4023435C4CE36040
:1008C0002346DB680424A3430C79A40004252C40B0
:1008D0002343574CE3602346DB680224A3434C794F
:1008E000640002252C402343514CE360514C8B683B
:1008F00023609AE04E4BDB6A01246402A3430C7828
:10090000640201256D022C402343494CE3622346D7
:10091000DB6AA415A3434C7824026D102C402343BA
:10092000434CE3622346DB6A7024A3438C782401A2
:1009300070252C4023433E4CE3622346DB6A0824A7
:10094000A343CC78E40008252C402343384CE362D1
:100950002346DB6A0424A3430C79A400042500E0A9
:1009600061E02C402343324CE3622346DB6A0224DD
:10097000A3434C79640002252C4023432C4CE362B2
:100980002D4CCB68236050E0294B4033DB680124B9
:100990006402A3430C78640201256D022C402343BA
:1009A000234C4034E3602346DB68A415A3434C7812
:1009B00024026D102C4023431D4C4034E360234639
:1009C000DB687024A3438C78240170252C402343DA
:1009D000174C4034E3602346DB680824A343CC78FB
:1009E000E40008252C402343114C4034E3602346A7
:1009F000DB680424A3430C79A40004252C40234382
:100A00000B4C4034E3602346DB680224A3434C795B
:100A1000640002252C402343054C4034E360074C1E
:100A20000B69236001E0012000BF00BF30BD000062
:100A3000000C00401C0000202000002024000020AA
:100A400001460020002904D001290AD002291AD128
:100A50000FE00F4AD26852085200521C0C4BDA6069
:100A600013E00B4AD26A52085200521C084BDA6259
:100A70000BE0074A4032D26852085200521C044B25
:100A80004033DA6001E0012000BF00BF7047000082
:100A9000000C004010B5044601480068804710BDB6
:100AA0003C00002002480349886003488860704782
:100AB0005A5A000000200040A5A500000348006825
:100AC0000F21C90288430149086070470020004097
:100AD00070B505460C460026FFF7E4FF002C01D058
:100AE000012000E000200446002D34D0012D0CD060
:100AF000022D3AD12048006804218843A100042235
:100B0000114008431C49086033E01C48C0680221BA
:100B1000884361000222114008431849C860084612
:100B2000C06804218843A1000422114008431349EE
:100B3000C86011480069000900010F300E490861C2
:100B400008460068022188436100022211400843E0
:100B5000094908600DE00848006840084000E107C6
:100B6000C90F08430449086003E0FFF7A7FF042604
:100B700000BF00BF304670BD00200040000D0240A5
:100B80001EB50020002120A31B6802931F4C18CC27
:100B9000019400931E4B1B689B069A0F002A04D0F9
:100BA000012A23D0022A23D116E0194BDB68032443
:100BB000640223405B0A02ACE05C164B5843164BC0
:100BC000984208D1154B5988114BDB685B055B0DCA
:100BD0008B4200D112480DE00D4B5B690124640289
:100BE00023405B0A9B006C46E05803E00D4801E09F
:100BF000002000BF00BF064B1B68DB055C0F0346EF
:100C0000E34018461EBD000004081018081A000032
:100C10000020004040420F0000366E01000C100022
:100C2000408651010048E80110B50024FFF7A8FFF5
:100C30000446044800684005810F2046C840044629
:100C4000204610BD0020004010B5024600200029BB
:100C500001D0012300E000231946002907D0084BEA
:100C60001B6A012494402343054C236206E0044B95
:100C70001B6A01249440A343014C236210BD000071
:100C80000020004010B5014600208A1E130000F02D
:100C900037FD0504101C28344000204B1B895A05E1
:100CA000520D1F4BDB68DB0ADB0213431C4CE36075
:100CB00031E01A4BDB885A05520D194BDB68DB0A11
:100CC000DB021343164CE36025E0144B9B885A0566
:100CD000520D134BDB68DB0ADB021343104CE3605D
:100CE00019E00E4B5B885A05520D0D4BDB68DB0A91
:100CF000DB0213430A4CE3600DE0084B1B885A05E6
:100D0000520D074BDB68DB0ADB021343044CE36044
:100D100001E0042000BF00BF10BD0000000C100067
:100D20000020004010B50446002C01D1042010BD65
:100D30002648006A012109068843401823490862B1
:100D40002078002804D0012818D002281FD10AE0FA
:100D50001E48406B0321890688430121C9064018BB
:100D60001A49486315E01948406B032189068843F6
:100D7000012189064018154948630AE01348406B71
:100D800003218906884340181049486301E0042084
:100D9000CDE700BF0D48406B0121490688436178CB
:100DA0004906012252061140084308494863606819
:100DB000401E074948610321081F00F0F7FC00208E
:100DC00003498861012008610020B0E7002000404D
:100DD00000E000E010B5044601480068804710BDFF
:100DE0002800002070470000F0B504460D46164666
:100DF0001F465548006A0121090788434018524997
:100E0000086200222946204600F0A2F80021A00135
:100E10004E4A8018001FAA008150002E0DD0A0015C
:100E20004A49FC31401800680121A9400843A1014A
:100E3000464AFC32891808600CE0A0014349FC31A5
:100E4000401800680121A9408843A1013F4AFC32B3
:100E500089180860079800280DD0A0013B49FC3193
:100E60004018C0690121A9400843A101374AFC325A
:100E70008918C8610CE0A0013449FC314018C069F0
:100E80000121A9408843A101304AFC328918C86178
:100E9000002F0DD0A0012D49FC314018006A01211E
:100EA000A9400843A101294AFC32891808620CE0D4
:100EB000A0012649FC314018006A0121A94088435D
:100EC000A101224AFC3289180862059800280DD039
:100ED000A0011E49FC314018406A0121A940084385
:100EE000A1011A4AFC32891848620CE0A001174996
:100EF000FC314018406A0121A9408843A101134AEE
:100F0000FC3289184862069800280DD0A0010F49CC
:100F1000FC314018C06A0121A9400843A1010B4AD5
:100F2000FC328918C8620CE0A0010849FC31401865
:100F3000C06A0121A9408843A101044AFC328918F2
:100F4000C8620020F0BD000000200040040C0240F8
:100F500030B50346002A0BD098010C4C0019C0682C
:100F600001248C4020439C01084D6419E0600AE094
:100F70009801064C0019C06801248C40A0439C01D4
:100F8000024D6419E060002030BD0000000D0240F9
:100F900008B50020009000BF00980028FCD008BDD4
:100FA00010B5044601480068804710BD2C000020A1
:100FB00010B50020C046C04610BD10B50120C04687
:100FC000C04610BD10B50220C046C04610BD10B5C9
:100FD0000320C046C04610BD10B5002000F0C6F981
:100FE00010BD10B5012000F0C1F910BD10B50020F2
:100FF00000F086F810BD10B50020FFF7D1FF10BD3E
:1010000010B5002000F0A6F810BD10B5012000F0CA
:10101000A1F810BD10B5022000F09CF810BD10B56D
:101020000420FFF70DFB10BD10B50520FFF708FBEE
:1010300010BD10B50620FFF703FB10BD10B5002052
:1010400000F038F810BD10B5002000F039FB10BDDD
:1010500010B50020FFF7A0FA10BD10B5002000F079
:10106000FBFA10BD10B5012000F0F6FA10BD10B566
:10107000002000F00BF810BD10B50020FFF7AAFE0D
:1010800010BD10B50020FFF705FD10BD10B50446DA
:101090000648C06A400840000449C8620448006825
:1010A000002802D002480068804710BD002400409C
:1010B0003000002010B5044601480068804710BD8C
:1010C0003400002010B50121002000F01CF9002898
:1010D0000FD1012100F0ACF801208007006805491C
:1010E000487001200449087004480178002000F08D
:1010F000C2F910BD740000201A0000200D0000206D
:1011000010B502480068804710BD0000380000207C
:1011100010B5FFF735FD0149086010BD0000002043
:101120001CB50220FFF7AEFD01210020FFF7D0FC27
:10113000FFF7EEFF0821684600F076FB01206946C4
:101140004870034801906846FFF7ECFD1CBD0000A5
:10115000FFFFFF0010B50446002C04D0012C06D080
:10116000022C0CD107E007480068804708E00648D9
:101170000068804704E005480068804700E000BF41
:1011800000BF10BD1C000020200000202400002013
:1011900070B50546A81D44B2204600F0BFFA0321F1
:1011A000204600F0C7FA2046002809DBC206D20E0E
:1011B00001219140034A1160BFF34F8FBFF36F8F3E
:1011C00000BF70BD80E100E010B5024600200021A4
:1011D00000BF0BE014234B43064CE358934203D16A
:1011E00014234B43181903E04B1CD9B20229F1D345
:1011F00000BF10BD4000002070B50546A81D44B2D8
:10120000204600F08BFA0321204600F093FA204696
:10121000002809DB00BF00BFC206D20E01219140A9
:10122000024A116000BF00BF00BF70BD00E100E0D6
:1012300070B506460D4600243046FFF7C5FF04464C
:10124000002C01D1042070BD002D04D0012D09D047
:10125000022D15D10DE06068406904218843616862
:1012600048610FE06068406940084000616848617B
:1012700008E060684069022188436168486101E0D4
:101280000420E0E700BF0020DDE770B506460D460C
:1012900000243046FFF798FF0446002C01D10420BB
:1012A00070BD6068406810218843290110221140F8
:1012B0000843616848600020F2E770B506460D46B5
:1012C00000243046FFF780FF0446002C01D10420A3
:1012D00070BD002D02D0012D10D107E0606840687C
:1012E00002218843801C6168486009E060684068AA
:1012F00040084000401C6168486001E00420E7E7C6
:1013000000BF0020E4E7F8B506460D46002700249C
:101310003046FFF759FF0446002C01D10420F8BDE8
:10132000002D04D0012D0BD0022D1BD111E06068DF
:1013300000694007C00F012148404840074612E0BD
:1013400060680069C007C00F012148404840074657
:1013500009E0606800698007C00F012148404840EB
:10136000074600E000BF00BF3846D8E770B5054625
:1013700000242846FFF728FF0446002C00D170BD4A
:10138000606800694007C00F002809D00021284686
:10139000FFF74EFFE068002801D0E0688047EEE7E5
:1013A00060680069C007C00F002808D001212846E6
:1013B000FFF73EFF2069002801D020698047606860
:1013C00000698007C00F002808D002212846FFF7D7
:1013D0002FFFA068002801D0A068804700BFCEE79B
:1013E000F8B506460C46012700253046FFF7ECFE0F
:1013F0000546002D01D10420F8BD002C01D10420A8
:10140000FAE72178304600F0A1F807466068002826
:1014100004D03046616800F0B1F80746A0680028A3
:1014200008D0A0684168E960A06881682961A06867
:101430000068A860207B012803D13046FFF7DCFE5E
:1014400002E03046FFF7A4FE00273846D4E770B527
:1014500005460C4622460021284600F0B3F82146F6
:10146000284600F008F800BF02212846FFF74BFF8E
:101470000128F9D070BD70B506460C4600253046EF
:10148000FFF7A2FE0546002D01D1042070BD022108
:101490003046FFF7CDFE6868046000BF0221304689
:1014A000FFF731FF0028F9D002213046FFF7C0FED8
:1014B0000020EBE770B506460C46002500BF615DD5
:1014C0003046FFF7C4FF681CC5B2605D0028F6D146
:1014D00070BDF8B507460E46144600200090002562
:1014E0003846FFF771FE0546002D01D0002C01D1D2
:1014F0000020F8BD6868406801214902884361788E
:10150000490201225202114008436968486020786C
:10151000002806D0012806D0022803D0032811D1C4
:1015200002E000BF0FE000BF626851016278521C08
:1015300072431046FEF7CAFE01210904081A80B260
:10154000009000E000BF00BF0098D2E770B50646EB
:101550000D4600243046FFF737FE0446002C01D12B
:10156000042070BD60684068C0218843A901C02282
:1015700011400843616848600020F2E770B50646F4
:101580000C4600253046FFF71FFE0546002D01D111
:10159000042070BD002C13D0686840682021884367
:1015A0002178490120221140084369684860207869
:1015B000012805D1607869688860A0786968C8608A
:1015C0000020E6E7F7B51646002400250098FFF74F
:1015D000FBFD0546002D01D10420FEBD002709E0DA
:1015E00080203040802801D1601CC4B27006060EF5
:1015F000781CC7B2082FF3DB0198002815D12046CC
:10160000E10F091849104900611A07D0686840685D
:10161000082188430830696848601BE068684068B2
:10162000082188436968486014E02046E10F0918E2
:1016300049104900611A06D068684068082188434B
:101640006968486006E06868406808218843083097
:10165000696848600020C0E710B50446002C13D12B
:101660001448406AC007C00F002822D01248006802
:10167000002802D01048006880470E48406A4008A1
:1016800040000C49486214E0012C12D10948406A1C
:101690008007C00F00280CD008480068002802D03E
:1016A0000648006880470348406A02218843014990
:1016B000486210BD00240040680000206C0000203B
:1016C00010B5084840680006C00F002808D000F098
:1016D0000DF805480068002802D0034800688047DC
:1016E00010BD0000800C00407000002001201E2171
:1016F000024A1160E121116000207047800C004017
:1017000030B47446641E2578641CAB4204D3635D18
:101710005B00E31830BC18471D46F8E7002805DBDE
:10172000C206D20E01219140014A116070470000AB
:1017300080E200E010B5002819DB1A4A03231B02DF
:10174000D21883089B00D2588307DC0EFF23A340E6
:101750009A438B071B0E8407E40EA3401A43114BD8
:10176000032424021B198408A4001A5118E00E4A0D
:1017700003071B0F083B9B089B00D2588307DC0E16
:10178000FF23A3409A438B071B0E8407E40EA3405C
:101790001A43054B0407240F083CA408A4001A515F
:1017A00010BD000000E100E01CED00E010B50028D5
:1017B00019DB1A4A03231B02D21883089B00D25854
:1017C0008307DC0EFF23A3409A438B071B0E84077D
:1017D000E40EA3401A43114B032424021B1984086E
:1017E000A4001A5118E00E4A03071B0F083B9B0880
:1017F0009B00D2588307DC0EFF23A3409A438B073C
:101800001B0E8407E40EA3401A43054B0407240F64
:10181000083CA408A4001A5110BD000000E100E03B
:101820001CED00E000BF704710B50A4601460029D4
:1018300000D110BD02E000230B70491C1346521E5C
:10184000002BF8D100BFF4E770B5054610E000208A
:101850000A4988617D21C90009480068FEF736FD04
:10186000012109060C1A00BF04488069A042FBD878
:1018700028466D1E0028EAD170BD000000E000E09F
:101880000000002092B0002500240C210BA8FFF7D7
:10189000CBFF03210AA8FFF7C7FF082108A8FFF71D
:1018A000C3FF142103A8FFF7BFFF002000900190A1
:1018B00001230246042102901846FFF795FA002002
:1018C0000090019001231A46052102901846FFF767
:1018D0008BFA00BF4548C068102188434349C8605F
:1018E00043480069C008C000801D414908613F4865
:1018F0000068102188433D49086000BF00BF0846CA
:10190000C068202188433949C86039484069C00807
:10191000C000801D36494861344800682021884352
:1019200020303249086000BF01210820FFF78CF900
:1019300001210020FFF788F92E480D9000200B9020
:101940002D480C900BA81090012110A801710321C3
:1019500008A80176002101720AA80F900EA90020A4
:10196000FFF73EFD002108A841704B20C0010990FF
:10197000032108A80170FFF757F9044608AA214679
:101980000020FFF7A6FD05460121684641740021AD
:10199000017403A90020FEF75BFF29460020FEF733
:1019A000FBFE29460020FEF725FF0020FFF748F840
:1019B00001210020FFF781FC01210020FFF738FC06
:1019C00001210020FFF761FC0FE000200B490870A7
:1019D00022460BA10B48FEF7F9FB0A490020FFF74E
:1019E00069FDFF20F530FFF72FFFEEE7400D0240C5
:1019F000400C0240C5100000E50D00001B00002057
:101A000025750A007E00002000800000009600007E
:101A1000301A0000000000207400000004010000E3
:101A2000A41A0000740000204403000020010000FC
:101A300000093D00527573484848210A00300A00E9
:101A4000310A00320A00330A0000000000000000E2
:101A50000000000000000000000000000000000086
:101A60000000000000000000000000000000000076
:101A70000000000000000040000000000000000026
:101A80000000000001000000000100400000000014
:101A90000000000000000000000000000000000046
:041AA0000000000042
:04000005000000C136
:00000001FF
