:020000040000FA
:10000000B0030020650100007F010000350D0000F5
:1000100000000000000000000000000000000000E0
:10002000000000000000000000000000830100004C
:1000300000000000000000008501000087010000B2
:10004000550D00005F0D0000690D0000730D0000EC
:1000500089010000890100007D0D0000870D00006E
:100060008901000089010000910D00008901000054
:100070009B0D000089010000A50D0000AF0D0000E0
:10008000B90D000089010000C30D0000CD0D000076
:10009000D70D0000E10D0000EB0D0000890100000C
:1000A000F50D000089010000FF0D0000090E0000A1
:1000B000130E0000890100001D0E0000270E000035
:1000C00000F002F800F03EF80CA030C80838241800
:1000D0002D18A246671EAB4654465D46AC4201D180
:1000E00000F030F87E460F3E0FCCB6460126334274
:1000F00000D0FB1AA246AB463343184788160000CF
:10010000A8160000103A02D378C878C1FAD852076E
:1001100001D330C830C101D504680C6070470000BD
:100120000023002400250026103A01D378C1FBD813
:10013000520700D330C100D50B6070471FB51FBDFB
:1001400010B510BD00F0EAF81146FFF7F7FF01F017
:10015000F1FA00F002F903B4FFF7F2FF03BC01F07B
:10016000D7FA00000C480D4A002100A1814200D9B5
:1001700002440B4802600B4880470B480047FEE7EB
:10018000FEE7FEE7FEE7FEE7FEE700000748084956
:10019000064A084B704700000000002000000000E5
:1001A00008ED00E0FD0E0000C1000000B0010020DD
:1001B000B0030020B00100207047002203098B42E9
:1001C0002CD3030A8B4211D300239C464EE00346F6
:1001D0000B433CD4002243088B4231D303098B42AA
:1001E0001CD3030A8B4201D394463FE0C3098B42E0
:1001F00001D3CB01C01A524183098B4201D38B0139
:10020000C01A524143098B4201D34B01C01A5241DB
:1002100003098B4201D30B01C01A5241C3088B4220
:1002200001D3CB00C01A524183088B4201D38B000B
:10023000C01A524143088B4201D34B00C01A5241AD
:10024000411A00D201465241104670475DE0CA0F84
:1002500000D04942031000D34042534000229C4644
:1002600003098B422DD3030A8B4212D3FC2289014E
:1002700012BA030A8B420CD3890192118B4208D324
:10028000890192118B4204D389013AD0921100E086
:100290008909C3098B4201D3CB01C01A524183099A
:1002A0008B4201D38B01C01A524143098B4201D3C7
:1002B0004B01C01A524103098B4201D30B01C01AF2
:1002C0005241C3088B4201D3CB00C01A524183086C
:1002D0008B4201D38B00C01A5241D9D243088B42C2
:1002E00001D34B00C01A5241411A00D20146634665
:1002F00052415B10104601D34042002B00D54942C9
:10030000704763465B1000D3404201B50020C046F1
:10031000C04602BD7047704770477047754600F091
:1003200025F8AE46050069465346C008C00085461C
:1003300018B020B5FFF72AFF60BC00274908B64671
:100340000026C0C5C0C5C0C5C0C5C0C5C0C5C0C5E4
:10035000C0C5403D49008D46704710B50446C046B3
:10036000C0462046FFF7F7FE10BD0000004870476A
:100370004C01002010B504462648006A4007C00F13
:1003800000280CD024484068002802D02249486840
:1003900080472048406A042188431E4948621D481E
:1003A000006A8007C00F00280CD01B488068002816
:1003B00002D01949886880471648406A022188435C
:1003C000144948621348006AC007C00F00280CD0C7
:1003D0001148C068002802D00F49C86880470D48FE
:1003E000406A400840000B4948620A48006A00071A
:1003F000C00F00280CD008480068002802D0064929
:10040000086880470348406A0821884301494862D8
:1004100010BD0000402400407C00002070B506465E
:10042000301FC4B2A0025049451888154059C00772
:10043000C00F00280DD0A0014C490858002803D057
:10044000A1014A4A505880470121C943FF20053085
:100450004151FF20013040598007C00F00280FD0C4
:10046000A001424940184068002804D0A1013F4A39
:100470008918486880470221C943FF20053041514F
:10048000FF20013040594007C00F00280FD0A001C5
:10049000364940188068002804D0A101334A8918E1
:1004A000886880470421C943FF2005304151FF205F
:1004B000013040590007C00F00280FD0A0012B4980
:1004C0004018C068002804D0A101284A8918C868CB
:1004D00080470821C943FF2005304151FF200130EA
:1004E00040594006C00F00280FD0A0011F494018F6
:1004F0008069002804D0A1011C4A891888698047B6
:100500004021C943FF2005304151FF2001304059AF
:100510000006C00F00280FD0A00114494018C06980
:10052000002804D0A101114A8918C8698047802198
:10053000C943FF2005304151FF2001304059C0051B
:10054000C00F00280ED0A00108494018006A0028FA
:1005500004D0A101054A8918086A80470449FF2090
:100560000530415170BD0000003000408C0000207B
:10057000FFFEFFFF10B502460020002A04D0012A2A
:100580000BD0022A1DD111E0104B1B681B0C1B0461
:100590008CB223430D4C236015E00C4B1B6A1B0CE3
:1005A0001B048CB22343094C23620CE0074B4033FD
:1005B0001B681B0C1B048CB22343044C4034236087
:1005C00001E0012000BF00BF10BD0000000C004092
:1005D00010B502460020002A04D0012A0BD0022ABE
:1005E0001DD111E0104B5B681B0C1B048CB2234324
:1005F0000D4C636015E00C4B5B6A1B0C1B048CB24A
:100600002343094C63620CE0074B40335B681B0CCF
:100610001B048CB22343044C4034636001E001208E
:1006200000BF00BF10BD0000000C004030B5024606
:100630000020002A04D0012A4AD0022A7ED191E06B
:10064000724BDB6801246402A3430C786402012529
:100650006D022C4023436D4CE3602346DB68A415F8
:10066000A3434C7824026D102C402343674CE36075
:100670002346DB687024A3438C78240170252C402A
:100680002343624CE3602346DB680824A343CC7811
:10069000E40008252C4023435C4CE3602346DB68E0
:1006A0000424A3430C79A40004252C402343574C75
:1006B000E3602346DB680224A3434C7964000225EF
:1006C0002C402343514CE360514C8B6823609AE0EB
:1006D0004E4BDB6A01246402A3430C7864020125BB
:1006E0006D022C402343494CE3622346DB6AA41588
:1006F000A3434C7824026D102C402343434CE36207
:100700002346DB6A7024A3438C78240170252C4097
:1007100023433E4CE3622346DB6A0824A343CC78A0
:10072000E40008252C402343384CE3622346DB6A6F
:100730000424A3430C79A400042500E061E02C40CC
:100740002343324CE3622346DB6A0224A3434C7901
:10075000640002252C4023432C4CE3622D4CCB68D3
:10076000236050E0294B4033DB6801246402A3433B
:100770000C78640201256D022C402343234C403445
:10078000E3602346DB68A415A3434C7824026D1074
:100790002C4023431D4C4034E3602346DB68702427
:1007A000A3438C78240170252C402343174C4034FC
:1007B000E3602346DB680824A343CC78E4000825E3
:1007C0002C402343114C4034E3602346DB6804246F
:1007D000A3430C79A40004252C4023430B4C403444
:1007E000E3602346DB680224A3434C7964000225BE
:1007F0002C402343054C4034E360074C0B692360D5
:1008000001E0012000BF00BF30BD0000000C00402F
:1008100024000020280000202C0000200146002099
:10082000002904D001290AD002291AD10FE00F4A69
:10083000D26852085200521C0C4BDA6013E00B4A8B
:10084000D26A52085200521C084BDA620BE0074A87
:100850004032D26852085200521C044B4033DA60D6
:1008600001E0012000BF00BF70470000000C004005
:1008700010B5044601480068804710BD44000020C0
:100880000248034988600348886070475A5A00004C
:1008900000200040A5A50000034800680F21C90200
:1008A00088430149086070470020004070B5054644
:1008B0000C460026FFF7E4FF002C01D0012000E0E9
:1008C00000200446002D34D0012D0CD0022D3AD149
:1008D0002048006804218843A100042211400843F5
:1008E0001C49086033E01C48C0680221884361004D
:1008F0000222114008431849C8600846C068042114
:100900008843A1000422114008431349C8601148DC
:100910000069000900010F300E49086108460068AF
:1009200002218843610002221140084309490860FE
:100930000DE00848006840084000E107C90F08437F
:100940000449086003E0FFF7A7FF042600BF00BFCB
:10095000304670BD00200040000D02401EB5002052
:10096000002120A31B6802931F4C18CC0194009314
:100970001E4B1B689B069A0F002A04D0012A23D025
:10098000022A23D116E0194BDB68032464022340BA
:100990005B0A02ACE05C164B5843164B984208D1F8
:1009A000154B5988114BDB685B055B0D8B4200D101
:1009B00012480DE00D4B5B690124640223405B0A81
:1009C0009B006C46E05803E00D4801E0002000BFAA
:1009D00000BF064B1B68DB055C0F0346E34018466F
:1009E0001EBD0000040810187C1700000020004005
:1009F00040420F0000366E01000C1000408651018D
:100A00000048E80110B50024FFF7A8FF0446044899
:100A100000684005810F2046C8400446204610BDAE
:100A20000020004010B502460020002901D001231B
:100A300000E000231946002907D0084B1B6A012457
:100A400094402343054C236206E0044B1B6A0124B7
:100A50009440A343014C236210BD000000200040DD
:100A600010B5014600208A1E130000F0BFFD0504EA
:100A7000101C28344000204B1B895A05520D1F4B77
:100A8000DB68DB0ADB0213431C4CE36031E01A4BEA
:100A9000DB885A05520D194BDB68DB0ADB02134376
:100AA000164CE36025E0144B9B885A05520D134BFE
:100AB000DB68DB0ADB021343104CE36019E00E4BEA
:100AC0005B885A05520D0D4BDB68DB0ADB021343D2
:100AD0000A4CE3600DE0084B1B885A05520D074B8A
:100AE000DB68DB0ADB021343044CE36001E0042013
:100AF00000BF00BF10BD0000000C1000002000402F
:100B000010B50446002C01D1042010BD2648006A0F
:100B100001210906884340182349086220780028EB
:100B200004D0012818D002281FD10AE01E48406BCB
:100B30000321890688430121C90640181A494863E0
:100B400015E01948406B0321890688430121890675
:100B50004018154948630AE01348406B0321890691
:100B6000884340181049486301E00420CDE700BFE6
:100B70000D48406B012149068843617849060122EE
:100B8000520611400843084948636068401E0749FF
:100B900048610321081F00F07FFD002003498861A0
:100BA000012008610020B0E70020004000E000E0E4
:100BB00010B5044601480068804710BD3000002091
:100BC0007047000002469001034BC0184068C840BF
:100BD000C007C00F70470000000D024070B504460A
:100BE0000D4616462948006A012109078843401826
:100BF0002649086200222946204600F04BF80021D1
:100C0000A001234A8018001FAA008150002E0DD099
:100C1000A0011F49FC31401800680121A940084388
:100C2000A1011B4AFC32891808600CE0A001184998
:100C3000FC31401800680121A9408843A101144AF1
:100C4000FC3289180860A0011149FC314018006A83
:100C50000121A9408843A1010D4AFC32891808628C
:100C6000A00111464018406A0121A9408843A10112
:100C700089184862A00111464018C16A0120A840A5
:100C80008143A0018018C162002070BD0020004097
:100C9000040C024030B50346002A0BD098010C4CDE
:100CA0000019C06801248C4020439C01084D641940
:100CB000E0600AE09801064C0019C06801248C40ED
:100CC000A0439C01024D6419E060002030BD00008B
:100CD000000D024030B5002A01D0012300E00023BE
:100CE0001A46002A0BD083010B4C1B199B68012468
:100CF0008C4023438401084D6419A3600AE08301FA
:100D0000054C1B199C6801238B409C438301024DB9
:100D10005B199C6030BD0000000D024010B501223F
:100D200002210020FFF75AFF012211460020FFF7A1
:100D300055FF10BD08B50020009000BF00980028A6
:100D4000FCD008BD10B5044601480068804710BDBE
:100D50003400002010B50020C046C04610BD10B5BC
:100D60000120C046C04610BD10B50220C046C04696
:100D700010BD10B50320C046C04610BD10B5002000
:100D800000F0E2F910BD10B5012000F0DDF910BD52
:100D900010B5002000F0A2F810BD10B50020FFF73C
:100DA000D1FF10BD10B5002000F0C2F810BD10B585
:100DB000012000F0BDF810BD10B5022000F0B8F819
:100DC00010BD10B50420FFF729FB10BD10B505209C
:100DD000FFF724FB10BD10B50620FFF71FFB10BD69
:100DE00010B5002000F04CF810BD10B5002000F048
:100DF000DDFB10BD10B50020FFF7BCFA10BD10B52B
:100E0000002000F09FFB10BD10B5012000F09AFB00
:100E100010BD10B5002000F01FF810BD10B5002067
:100E2000FFF7C6FE10BD10B50020FFF721FD10BD75
:100E300010B5002402210020FFF7C4FE002801D1D4
:100E40000120044301210020FFF7BCFE002801D14E
:100E500002200443204610BD10B504460648C06A6F
:100E6000400840000449C86204480068002802D0D5
:100E700002480068804710BD002400403800002070
:100E800010B5044601480068804710BD3C000020B2
:100E900010B5104802780021084600F05EFA0D48AF
:100EA0000178002000F0C1F90121002000F019F9BB
:100EB00001280ED10121002000F0A8F80648027890
:100EC0000021084600F049FA03480178002000F0AC
:100ED000ACF910BD180000201B00002010B502481E
:100EE0000068804710BD00004000002010B5FFF7EB
:100EF00035FD0149086010BD000000201CB502202E
:100F0000FFF7AEFD01210020FFF7D0FCFFF7EEFF59
:100F10000821684600F0FEFB01206946487003483E
:100F200001906846FFF7ECFD1CBD0000FFFFFF00CD
:100F300010B50446002C04D0012C06D0022C0CD194
:100F400007E007480068804708E0064800688047D7
:100F500004E005480068804700E000BF00BF10BD06
:100F600024000020280000202C00002070B5054639
:100F7000A81D44B2204600F047FB0321204600F0A4
:100F80004FFB2046002809DBC206D20E012191400A
:100F9000034A1160BFF34F8FBFF36F8F00BF70BD67
:100FA00080E100E010B502460020002100BF0BE008
:100FB00014234B43064CE358934203D114234B4371
:100FC000181903E04B1CD9B20229F1D300BF10BDA0
:100FD0004800002070B50546A81D44B2204600F028
:100FE00013FB0321204600F01BFB2046002809DBF1
:100FF00000BF00BFC206D20E01219140024A11601B
:1010000000BF00BF00BF70BD00E100E070B5064644
:101010000D4600243046FFF7C5FF0446002C01D1E1
:10102000042070BD002D04D0012D09D0022D15D152
:101030000DE06068406904218843616848610FE001
:1010400060684069400840006168486108E0606885
:101050004069022188436168486101E00420E0E7BB
:1010600000BF0020DDE770B506460D46002430467F
:10107000FFF798FF0446002C01D1042070BD606882
:1010800040681021884329011022114008436168FB
:1010900048600020F2E770B506460D460024304651
:1010A000FFF780FF0446002C01D1042070BD002D05
:1010B00002D0012D10D107E060684068022188430A
:1010C000801C6168486009E0606840684008400032
:1010D000401C6168486001E00420E7E700BF002091
:1010E000E4E7F8B506460D46002700243046FFF732
:1010F00059FF0446002C01D10420F8BD002D04D076
:10110000012D0BD0022D1BD111E060680069400752
:10111000C00F012148404840074612E0606800695E
:10112000C007C00F012148404840074609E06068F9
:1011300000698007C00F012148404840074600E091
:1011400000BF00BF3846D8E770B5054600242846E2
:10115000FFF728FF0446002C00D170BD60680069CD
:101160004007C00F002809D000212846FFF74EFF96
:10117000E068002801D0E0688047EEE76068006919
:10118000C007C00F002808D001212846FFF73EFF06
:101190002069002801D020698047606800698007C5
:1011A000C00F002808D002212846FFF72FFFA068B3
:1011B000002801D0A068804700BFCEE7F8B50646FA
:1011C0000C46012700253046FFF7ECFE0546002DB2
:1011D00001D10420F8BD002C01D10420FAE72178C8
:1011E000304600F07EF807466068002804D030469C
:1011F000616800F08EF80746A068002808D0A06853
:101200004168E960A06881682961A0680068A860F9
:10121000207B012803D13046FFF7DCFE02E0304698
:10122000FFF7A4FE00273846D4E770B506460C4603
:1012300000253046FFF7B6FE0546002D01D10420FB
:1012400070BD02213046FFF7E1FE6868046000BF10
:1012500002213046FFF745FF0028F9D00221304631
:10126000FFF7D4FE0020EBE7F8B507460E4614461C
:101270000020009000253846FFF794FE0546002D1B
:1012800001D0002C01D10020F8BD68684068012120
:101290004902884361784902012252021140084301
:1012A000696848602078002806D0012806D0022806
:1012B00003D0032811D102E000BF0FE000BF626835
:1012C00051016278521C72431046FEF776FF0121ED
:1012D0000904081A80B2009000E000BF00BF009827
:1012E000D2E770B506460D4600243046FFF75AFE99
:1012F0000446002C01D1042070BD60684068C02104
:101300008843A901C0221140084361684860002059
:10131000F2E770B506460C4600253046FFF742FE60
:101320000546002D01D1042070BD002C13D0686843
:101330004068202188432178490120221140084338
:10134000696848602078012805D1607869688860FC
:10135000A0786968C8600020E6E7F7B51646002463
:1013600000250098FFF71EFE0546002D01D1042040
:10137000FEBD002709E080203040802801D1601C9C
:10138000C4B27006060E781CC7B2082FF3DB0198B2
:10139000002815D12046E10F091849104900611AAB
:1013A00007D0686840680821884308306968486049
:1013B0001BE068684068082188436968486014E059
:1013C0002046E10F091849104900611A06D06868E3
:1013D0004068082188436968486006E0686840689A
:1013E000082188430830696848600020C0E7000091
:1013F00000B58FB00C2108A800F08CF9032107A8D4
:1014000000F088F9082105A800F084F91421684645
:1014100000F080F9002204210120FFF7DFFB012208
:1014200005211046FFF7DAFB00BF4048C0681021D5
:1014300088433E49C8603E480069C008C000801D1E
:101440003B490861394800681021884337490860E2
:1014500000BF00BF0846C068202188433349C860E8
:1014600033484069C008C000801D314948612F4899
:1014700000682021884320302C49086000BF0121EA
:101480000820FFF7CFFA01210020FFF7CBFA294807
:101490000A90002008902848099008A80D90012182
:1014A00001760321017300216846017707A80C909B
:1014B0000BA90020FFF782FE0021684641754B20F2
:1014C000C0010690032168460175FFF79BFA1B498E
:1014D000086005AA084601680020FFF7C5FE184904
:1014E0000880012168464171002101716946002090
:1014F000FFF79CF8124801880020FFF73BF81048DE
:1015000001880020FFF764F80020FFF787F9012128
:101510000020FFF7C0FD01210020FFF777FD01212A
:101520000020FFF7A0FD0FB000BD0000400D0240FD
:10153000400C0240910E0000C10B0000080000208A
:101540000400002010B50446002C13D11448406A52
:10155000C007C00F002822D012480068002802D01F
:101560001048006880470E48406A400840000C4917
:10157000486214E0012C12D10948406A8007C00F6C
:1015800000280CD008480068002802D006480068EF
:1015900080470348406A022188430149486210BDE0
:1015A00000240040700000207400002010B508489E
:1015B00040680006C00F002808D000F00DF805486C
:1015C0000068002802D003480068804710BD000072
:1015D000800C00407800002001201E21024A11608A
:1015E000E121116000207047800C004030B4744647
:1015F000641E2578641CAB4204D3635D5B00E31872
:1016000030BC18471D46F8E7002805DBC206D20E9D
:1016100001219140014A11607047000080E200E022
:1016200010B5002819DB1A4A03231B02D2188308BD
:101630009B00D2588307DC0EFF23A3409A438B07FD
:101640001B0E8407E40EA3401A43114B032424020B
:101650001B198408A4001A5118E00E4A03071B0F37
:10166000083B9B089B00D2588307DC0EFF23A34056
:101670009A438B071B0E8407E40EA3401A43054BC5
:101680000407240F083CA408A4001A5110BD000050
:1016900000E100E01CED00E010B5002819DB1A4A5B
:1016A00003231B02D21883089B00D2588307DC0E49
:1016B000FF23A3409A438B071B0E8407E40EA3402D
:1016C0001A43114B032424021B198408A4001A5145
:1016D00018E00E4A03071B0F083B9B089B00D258DB
:1016E0008307DC0EFF23A3409A438B071B0E84075E
:1016F000E40EA3401A43054B0407240F083CA4083A
:10170000A4001A5110BD000000E100E01CED00E053
:1017100000BF704710B50A460146002900D110BD30
:1017200002E000230B70491C1346521E002BF8D117
:1017300000BFF4E7FFF75CFEFFF7F0FA1DE0FFF7EC
:1017400077FB012802D0022816D10AE000220421EA
:101750000320FFF743FA012204210320FFF7BAFA1E
:101760000AE0002205210320FFF738FA01220521B3
:101770000320FFF7AFFA00BF00BFE0E700800000E2
:1017800000960000A4170000000000207C0000006C
:1017900004010000201800007C0000203403000039
:1017A0002001000000093D000000000000000000D2
:1017B000527573484848210A00300A00310A003245
:1017C0000A00330A000000000000000000000000D2
:1017D0000000000000000000000000000000000009
:1017E00000000000000000000000000000000000F9
:1017F00000000040000000000000000000000000A9
:101800000100000000010040000000000000000096
:1018100000000000000000000000000000000000C8
:04000005000000C136
:00000001FF
