:020000040000FA
:1000000090030020650100007F010000450800000A
:1000100000000000000000000000000000000000E0
:10002000000000000000000000000000830100004C
:1000300000000000000000008501000087010000B2
:10004000650800006F0800007908000083080000C0
:1000500089010000890100008D0800009708000058
:100060008901000089010000A10800008901000049
:10007000AB08000089010000B5080000BF080000BF
:10008000C908000089010000D3080000DD08000055
:10009000E7080000F1080000FB08000089010000EB
:1000A00005090000890100000F090000190900007E
:1000B00023090000890100002D0900003709000014
:1000C00000F002F800F03EF80CA030C80838241800
:1000D0002D18A246671EAB4654465D46AC4201D180
:1000E00000F030F87E460F3E0FCCB6460126334274
:1000F00000D0FB1AA246AB46334318477C0B0000E6
:100100009C0B0000103A02D378C878C1FAD8520785
:1001100001D330C830C101D504680C6070470000BD
:100120000023002400250026103A01D378C1FBD813
:10013000520700D330C100D50B6070471FB51FBDFB
:1001400010B510BD00F03DF81146FFF7F7FF00F0C5
:100150008BFD00F055F803B4FFF7F2FF03BC00F08D
:1001600071FD00000C480D4A002100A1814200D918
:1001700002440B4802600B4880470B480047FEE7EB
:10018000FEE7FEE7FEE7FEE7FEE700000748084956
:10019000064A084B704700000000002000000000E5
:1001A00008ED00E099090000C10000009001002066
:1001B00090030020900100207047704770477047FF
:1001C0007047754600F024F8AE4605006946534670
:1001D000C008C000854618B020B5FFF7D7FF60BC47
:1001E00000274908B6460026C0C5C0C5C0C5C0C561
:1001F000C0C5C0C5C0C5C0C5403D49008D4670479B
:1002000010B50446C046C0462046FFF7A4FF10BD07
:10021000004870472C01002010B504462648006AAB
:100220004007C00F00280CD024484068002802D0A6
:100230002249486880472048406A042188431E4973
:1002400048621D48006A8007C00F00280CD01B4878
:100250008068002802D01949886880471648406A9B
:1002600002218843144948621348006AC007C00F3E
:1002700000280CD01148C068002802D00F49C86877
:1002800080470D48406A400840000B4948620A48D0
:10029000006A0007C00F00280CD00848006800283A
:1002A00002D00649086880470348406A082188430D
:1002B0000149486210BD0000402400405C0000205D
:1002C00070B50646301FC4B2A002504945188815C3
:1002D0004059C007C00F00280DD0A0014C49085854
:1002E000002803D0A1014A4A505880470121C94340
:1002F000FF2005304151FF20013040598007C00FD9
:1003000000280FD0A001424940184068002804D0BE
:10031000A1013F4A8918486880470221C943FF204C
:1003200005304151FF20013040594007C00F0028DF
:100330000FD0A001364940188068002804D0A101E0
:10034000334A8918886880470421C943FF20053053
:100350004151FF20013040590007C00F00280FD045
:10036000A0012B494018C068002804D0A101284AE8
:100370008918C86880470821C943FF2005304151CA
:10038000FF20013040594006C00F00280FD0A001C7
:100390001F4940188069002804D0A1011C4A89180F
:1003A000886980474021C943FF2005304151FF2023
:1003B000013040590006C00F00280FD0A001144999
:1003C0004018C069002804D0A101114A8918C869E1
:1003D00080478021C943FF2005304151FF20013073
:1003E0004059C005C00F00280ED0A0010849401890
:1003F000006A002804D0A101054A8918086A8047CC
:100400000449FF200530415170BD0000003000401C
:100410006C000020FFFEFFFF10B504460148006895
:10042000804710BD2400002002480349886003482B
:10043000886070475A5A000000200040A5A50000BF
:10044000034800680F21C9028843014908607047CA
:100450000020004070B505460C460026FFF7E4FF7B
:10046000002C01D0012000E000200446002D34D0F3
:10047000012D0CD0022D3AD1204800680421884378
:10048000A1000422114008431C49086033E01C48C5
:10049000C0680221884361000222114008431849C4
:1004A000C8600846C06804218843A10004221140A6
:1004B00008431349C86011480069000900010F3062
:1004C0000E49086108460068022188436100022243
:1004D00011400843094908600DE0084800684008D9
:1004E0004000E107C90F08430449086003E0FFF733
:1004F000A7FF042600BF00BF304670BD00200040AB
:10050000000D02401EB50020002120A31B680293AD
:100510001F4C18CC019400931E4B1B689B069A0F2E
:10052000002A04D0012A23D0022A23D116E0194B35
:10053000DB680324640223405B0A02ACE05C164BD8
:100540005843164B984208D1154B5988114BDB681C
:100550005B055B0D8B4200D112480DE00D4B5B69D2
:100560000124640223405B0A9B006C46E05803E0D0
:100570000D4801E0002000BF00BF064B1B68DB05F3
:100580005C0F0346E34018461EBD00000408101827
:10059000700C00000020004040420F0000366E0149
:1005A000000C1000408651010048E80110B50146DA
:1005B00000208A1E130000F0FBFA0504101C2834EA
:1005C0004000204B1B895A05520D1F4BDB68DB0A8C
:1005D000DB0213431C4CE36031E01A4BDB885A0505
:1005E000520D194BDB68DB0ADB021343164CE36048
:1005F00025E0144B9B885A05520D134BDB68DB0A30
:10060000DB021343104CE36019E00E4B5B885A0584
:10061000520D0D4BDB68DB0ADB0213430A4CE3602F
:100620000DE0084B1B885A05520D074BDB68DB0AAF
:10063000DB021343044CE36001E0042000BF00BF71
:1006400010BD0000000C10000020004010B5044652
:10065000002C01D1042010BD2648006A01210906A2
:1006600088434018234908622078002804D00128D4
:1006700018D002281FD10AE01E48406B03218906CA
:1006800088430121C90640181A49486315E01948F2
:10069000406B0321890688430121890640181549CA
:1006A00048630AE01348406B0321890688434018D9
:1006B0001049486301E00420CDE700BF0D48406BBE
:1006C00001214906884361784906012252061140FA
:1006D0000843084948636068401E07494861032190
:1006E000081F00F073FA00200349886101200861A7
:1006F0000020B0E70020004000E000E010B5044614
:1007000001480068804710BD1000002070B5044605
:100710000D4616462948006A0121090788434018FA
:100720002649086200222946204600F04BF80021A5
:10073000A001234A8018001FAA008150002E0DD06E
:10074000A0011F49FC31401800680121A94008435D
:10075000A1011B4AFC32891808600CE0A00118496D
:10076000FC31401800680121A9408843A101144AC6
:10077000FC3289180860A0011149FC314018006A58
:100780000121A9408843A1010D4AFC328918086261
:10079000A00111464018406A0121A9408843A101E7
:1007A00089184862A00111464018C16A0120A8407A
:1007B0008143A0018018C162002070BD002000406C
:1007C000040C024030B50346002A0BD098010C4CB3
:1007D0000019C06801248C4020439C01084D641915
:1007E000E0600AE09801064C0019C06801248C40C2
:1007F000A0439C01024D6419E060002030BD000060
:10080000000D024010B5012202210020FFF77EFFFB
:10081000012211460020FFF779FF00220221032068
:10082000FFF774FF002203211046FFF76FFF00223D
:1008300004210320FFF76AFF002205210320FFF7B0
:1008400065FF10BD08B50020009000BF009800288B
:10085000FCD008BD10B5044601480068804710BDB3
:100860001400002010B50020C046C04610BD10B5D1
:100870000120C046C04610BD10B50220C046C0468B
:1008800010BD10B50320C046C04610BD10B50020F5
:1008900000F0FFF810BD10B5012000F0FAF810BD0F
:1008A00010B5002000F068F810BD10B50020FFF76B
:1008B000D1FF10BD10B5002000F088F810BD10B5B4
:1008C000012000F083F810BD10B5022000F07EF882
:1008D00010BD10B50420FFF7F3FC10BD10B50520C6
:1008E000FFF7EEFC10BD10B50620FFF7E9FC10BDC8
:1008F00010B5002000F038F810BD10B5002000F051
:1009000037F910BD10B50020FFF786FC10BD10B5FB
:10091000002000F0F9F810BD10B5012000F0F4F847
:1009200010BD10B5002000F00BF810BD10B5002070
:10093000FFF7E4FE10BD10B50020FFF76DFD10BD00
:1009400010B504460648C06A400840000449C86221
:1009500004480068002802D002480068804710BDA3
:10096000002400401800002010B50446014800682B
:10097000804710BD1C00002010B502480068804769
:1009800010BD00002000002010B5FFF7BBFD01499D
:10099000086010BD000000201CB50220FFF706FE15
:1009A00001210020FFF756FDFFF7EEFF0821684602
:1009B00000F04AF9012069464870034801906846F2
:1009C000FFF744FE1CBD0000FFFFFF0010B504460A
:1009D000002C04D0012C06D0022C0CD107E00748D3
:1009E0000068804708E006480068804704E0054842
:1009F0000068804700E000BF00BF10BD0400002079
:100A0000080000200C00002010B502460020002144
:100A100000BF0BE014234B43064CE358934203D131
:100A200014234B43181903E04B1CD9B20229F1D30C
:100A300000BF10BD2800002070B506460D460024FA
:100A40003046FFF7E1FF0446002C01D1042070BDC1
:100A5000002D04D0012D09D0022D15D10DE06068C4
:100A6000406904218843616848610FE0606840691B
:100A7000400840006168486108E060684069022100
:100A800088436168486101E00420E0E700BF00207E
:100A9000DDE770B5054600242846FFF7B5FF04469C
:100AA000002C00D170BD606800694007C00F0028AD
:100AB00009D000212846FFF7BFFFE068002801D0D9
:100AC000E0688047EEE760680069C007C00F002853
:100AD00008D001212846FFF7AFFF2069002801D088
:100AE00020698047606800698007C00F002808D02F
:100AF00002212846FFF7A0FFA068002801D0A068C7
:100B0000804700BFCEE7000010B50446002C13D18B
:100B10001448406AC007C00F002822D0124800685D
:100B2000002802D01048006880470E48406A4008FC
:100B300040000C49486214E0012C12D10948406A77
:100B40008007C00F00280CD008480068002802D099
:100B50000648006880470348406A022188430149EB
:100B6000486210BD002400405000002054000020C6
:100B700010B5084840680006C00F002808D000F0F3
:100B80000DF805480068002802D003480068804737
:100B900010BD0000800C00405800002001201E21E4
:100BA000024A1160E121116000207047800C004072
:100BB00030B47446641E2578641CAB4204D3635D74
:100BC0005B00E31830BC18471D46F8E710B5002855
:100BD00019DB1A4A03231B02D21883089B00D25840
:100BE0008307DC0EFF23A3409A438B071B0E840769
:100BF000E40EA3401A43114B032424021B1984085A
:100C0000A4001A5118E00E4A03071B0F083B9B086B
:100C10009B00D2588307DC0EFF23A3409A438B0727
:100C20001B0E8407E40EA3401A43054B0407240F50
:100C3000083CA408A4001A5110BD000000E100E027
:100C40001CED00E000BF704710B50A4601460029C0
:100C500000D110BD02E000230B70491C1346521E48
:100C6000002BF8D100BFF4E7FFF7CCFD00BFFEE793
:100C70000080000000960000980C0000000000209A
:100C80005C00000004010000F40C00005C00002087
:100C9000340300002001000000093D0000000000B6
:100CA0000000000000000000000000000000000044
:100CB0000000000000000000000000000000000034
:100CC00000000000000000400000000000000000E4
:100CD00000000000010000000001004000000000D2
:100CE0000000000000000000000000000000000004
:040CF0000000000000
:04000005000000C136
:00000001FF
