:020000040000FA
:10000000B8030020650100007F010000610D0000C1
:1000100000000000000000000000000000000000E0
:10002000000000000000000000000000830100004C
:1000300000000000000000008501000087010000B2
:10004000810D00008B0D0000950D00009F0D00003C
:100050008901000089010000A90D0000B30D000016
:100060008901000089010000BD0D00008901000028
:10007000C70D000089010000D10D0000DB0D00005C
:10008000E50D000089010000EF0D0000F90D0000F2
:10009000030E00000D0E0000170E00008901000085
:1000A000210E0000890100002B0E0000350E00001B
:1000B0003F0E000089010000490E0000530E0000B1
:1000C00000F002F800F03EF80CA030C80838241800
:1000D0002D18A246671EAB4654465D46AC4201D180
:1000E00000F030F87E460F3E0FCCB6460126334274
:1000F00000D0FB1AA246AB463343184764160000F3
:1001000084160000103A02D378C878C1FAD8520792
:1001100001D330C830C101D504680C6070470000BD
:100120000023002400250026103A01D378C1FBD813
:10013000520700D330C100D50B6070471FB51FBDFB
:1001400010B510BD00F02AF91146FFF7F7FF01F0D6
:10015000FDFA00F054F903B4FFF7F2FF03BC01F01D
:10016000D3FA00000C480D4A002100A1814200D9B9
:1001700002440B4802600B4880470B480047FEE7EB
:10018000FEE7FEE7FEE7FEE7FEE700000748084956
:10019000064A084B704700000000002000000000E5
:1001A00008ED00E0C50E0000C1000000B80100200D
:1001B000B8030020B8010020704700000FB40549C3
:1001C00010B503AA029800F0B9F810BC08BC04B03E
:1001D0001847000084000020002203098B422CD322
:1001E000030A8B4211D300239C464EE003460B4387
:1001F0003CD4002243088B4231D303098B421CD3E9
:10020000030A8B4201D394463FE0C3098B4201D3DA
:10021000CB01C01A524183098B4201D38B01C01A12
:10022000524143098B4201D34B01C01A5241030989
:100230008B4201D30B01C01A5241C3088B4201D338
:10024000CB00C01A524183088B4201D38B00C01AE5
:10025000524143088B4201D34B00C01A5241411A0C
:1002600000D201465241104670475DE0CA0F00D0EF
:100270004942031000D34042534000229C460309E8
:100280008B422DD3030A8B4212D3FC22890112BA6E
:10029000030A8B420CD3890192118B4208D3890146
:1002A00092118B4204D389013AD0921100E089095E
:1002B000C3098B4201D3CB01C01A524183098B423F
:1002C00001D38B01C01A524143098B4201D34B0128
:1002D000C01A524103098B4201D30B01C01A52418B
:1002E000C3088B4201D3CB00C01A524183088B4212
:1002F00001D38B00C01A5241D9D243088B4201D39B
:100300004B00C01A5241411A00D201466346524185
:100310005B10104601D34042002B00D54942704784
:1003200063465B1000D3404201B50020C046C04682
:1003300002BD70477047704770470000084B70B5AA
:100340000D467B4400F013F80446284600F022F8DE
:10035000002802D00020C04370BD204670BD0000C0
:10036000E713000001694A1C02610878704700B574
:100370008FB00291002105910549019379440391C1
:1003800011460490684600F028F80FB000BD000048
:10039000E5FFFFFFC068802108407047754600F008
:1003A00037F8AE46050069465346C008C00085468A
:1003B00018B020B5FFF7EAFE60BC00274908B64632
:1003C0000026C0C5C0C5C0C5C0C5C0C5C0C5C0C564
:1003D000C0C5403D49008D467047F8B5064600242B
:1003E0004768806800903046F56803E00099B84798
:1003F000641C3046A8470028F8D12046F8BD10B547
:100400000446C046C0462046FFF7A5FE10BD0000CA
:10041000004870475801002010B504462648006A7D
:100420004007C00F00280CD024484068002802D0A4
:100430002249486880472048406A042188431E4971
:1004400048621D48006A8007C00F00280CD01B4876
:100450008068002802D01949886880471648406A99
:1004600002218843144948621348006AC007C00F3C
:1004700000280CD01148C068002802D00F49C86875
:1004800080470D48406A400840000B4948620A48CE
:10049000006A0007C00F00280CD008480068002838
:1004A00002D00649086880470348406A082188430B
:1004B0000149486210BD000040240040880000202F
:1004C00070B50646301FC4B2A002504945188815C1
:1004D0004059C007C00F00280DD0A0014C49085852
:1004E000002803D0A1014A4A505880470121C9433E
:1004F000FF2005304151FF20013040598007C00FD7
:1005000000280FD0A001424940184068002804D0BC
:10051000A1013F4A8918486880470221C943FF204A
:1005200005304151FF20013040594007C00F0028DD
:100530000FD0A001364940188068002804D0A101DE
:10054000334A8918886880470421C943FF20053051
:100550004151FF20013040590007C00F00280FD043
:10056000A0012B494018C068002804D0A101284AE6
:100570008918C86880470821C943FF2005304151C8
:10058000FF20013040594006C00F00280FD0A001C5
:100590001F4940188069002804D0A1011C4A89180D
:1005A000886980474021C943FF2005304151FF2021
:1005B000013040590006C00F00280FD0A001144997
:1005C0004018C069002804D0A101114A8918C869DF
:1005D00080478021C943FF2005304151FF20013071
:1005E0004059C005C00F00280ED0A001084940188E
:1005F000006A002804D0A101054A8918086A8047CA
:100600000449FF200530415170BD0000003000401A
:1006100098000020FFFEFFFF10B502460020002AD0
:1006200004D0012A0BD0022A1DD111E0104B1B6807
:100630001B0C1B048CB223430D4C236015E00C4BA8
:100640001B6A1B0C1B048CB22343094C23620CE075
:10065000074B40331B681B0C1B048CB22343044C18
:100660004034236001E0012000BF00BF10BD000046
:10067000000C004010B502460020002A04D0012AD8
:100680000BD0022A1DD111E0104B5B681B0C1B0420
:100690008CB223430D4C636015E00C4B5B6A1B0C62
:1006A0001B048CB22343094C63620CE0074B4033BC
:1006B0005B681B0C1B048CB22343044C4034636006
:1006C00001E0012000BF00BF10BD0000000C004091
:1006D00030B502460020002A04D0012A4AD0022A5E
:1006E0007ED191E0724BDB6801246402A3430C7855
:1006F000640201256D022C4023436D4CE3602346C8
:10070000DB68A415A3434C7824026D102C402343CE
:10071000674CE3602346DB687024A3438C78240194
:1007200070252C402343624CE3602346DB68082499
:10073000A343CC78E40008252C4023435C4CE360C1
:100740002346DB680424A3430C79A40004252C4031
:100750002343574CE3602346DB680224A3434C79D0
:10076000640002252C402343514CE360514C8B68BC
:1007700023609AE04E4BDB6A01246402A3430C78A9
:10078000640201256D022C402343494CE362234659
:10079000DB6AA415A3434C7824026D102C4023433C
:1007A000434CE3622346DB6A7024A3438C78240124
:1007B00070252C4023433E4CE3622346DB6A082429
:1007C000A343CC78E40008252C402343384CE36253
:1007D0002346DB6A0424A3430C79A400042500E02B
:1007E00061E02C402343324CE3622346DB6A02245F
:1007F000A3434C79640002252C4023432C4CE36234
:100800002D4CCB68236050E0294B4033DB6801243A
:100810006402A3430C78640201256D022C4023433B
:10082000234C4034E3602346DB68A415A3434C7893
:1008300024026D102C4023431D4C4034E3602346BA
:10084000DB687024A3438C78240170252C4023435B
:10085000174C4034E3602346DB680824A343CC787C
:10086000E40008252C402343114C4034E360234628
:10087000DB680424A3430C79A40004252C40234303
:100880000B4C4034E3602346DB680224A3434C79DD
:10089000640002252C402343054C4034E360074CA0
:1008A0000B69236001E0012000BF00BF30BD0000E4
:1008B000000C00402C0000203000002034000020FC
:1008C00001460020002904D001290AD002291AD1AA
:1008D0000FE00F4AD26852085200521C0C4BDA60EB
:1008E00013E00B4AD26A52085200521C084BDA62DB
:1008F0000BE0074A4032D26852085200521C044BA7
:100900004033DA6001E0012000BF00BF7047000003
:10091000000C004010B5044601480068804710BD37
:100920004C000020024803498860034888607047F3
:100930005A5A000000200040A5A5000003480068A6
:100940000F21C90288430149086070470020004018
:1009500070B505460C460026FFF7E4FF002C01D0D9
:10096000012000E000200446002D34D0012D0CD0E1
:10097000022D3AD12048006804218843A1000422B6
:10098000114008431C49086033E01C48C06802213C
:10099000884361000222114008431849C860084694
:1009A000C06804218843A100042211400843134970
:1009B000C86011480069000900010F300E49086144
:1009C0000846006802218843610002221140084362
:1009D000094908600DE00848006840084000E10748
:1009E000C90F08430449086003E0FFF7A7FF042686
:1009F00000BF00BF304670BD00200040000D024027
:100A00001EB50020002120A31B6802931F4C18CCA8
:100A1000019400931E4B1B689B069A0F002A04D07A
:100A2000012A23D0022A23D116E0194BDB680324C4
:100A3000640223405B0A02ACE05C164B5843164B41
:100A4000984208D1154B5988114BDB685B055B0D4B
:100A50008B4200D112480DE00D4B5B69012464020A
:100A600023405B0A9B006C46E05803E00D4801E020
:100A7000002000BF00BF064B1B68DB055C0F034670
:100A8000E34018461EBD0000040810185817000067
:100A90000020004040420F0000366E01000C1000A4
:100AA000408651010048E80110B50024FFF7A8FF77
:100AB0000446044800684005810F2046C8400446AB
:100AC000204610BD0020004010B50246002000293D
:100AD00001D0012300E000231946002907D0084B6C
:100AE0001B6A012494402343054C236206E0044B17
:100AF0001B6A01249440A343014C236210BD0000F3
:100B00000020004010B5014600208A1E130000F0AE
:100B100069FD0504101C28344000204B1B895A0530
:100B2000520D1F4BDB68DB0ADB0213431C4CE360F6
:100B300031E01A4BDB885A05520D194BDB68DB0A92
:100B4000DB021343164CE36025E0144B9B885A05E7
:100B5000520D134BDB68DB0ADB021343104CE360DE
:100B600019E00E4B5B885A05520D0D4BDB68DB0A12
:100B7000DB0213430A4CE3600DE0084B1B885A0567
:100B8000520D074BDB68DB0ADB021343044CE360C6
:100B900001E0042000BF00BF10BD0000000C1000E9
:100BA0000020004010B50446002C01D1042010BDE7
:100BB0002648006A01210906884340182349086233
:100BC0002078002804D0012818D002281FD10AE07C
:100BD0001E48406B0321890688430121C90640183D
:100BE0001A49486315E01948406B03218906884378
:100BF000012189064018154948630AE01348406BF3
:100C000003218906884340181049486301E0042005
:100C1000CDE700BF0D48406B01214906884361784C
:100C2000490601225206114008430849486360689A
:100C3000401E074948610321081F00F029FD0020DC
:100C400003498861012008610020B0E700200040CE
:100C500000E000E010B5044601480068804710BD80
:100C6000380000207047000070B504460D46164657
:100C70002948006A0121090788434018264908626B
:100C800000222946204600F04BF80021A001234A0B
:100C90008018001FAA008150002E0DD0A0011F490E
:100CA000FC31401800680121A9400843A1011B4AFA
:100CB000FC32891808600CE0A0011849FC3140188A
:100CC00000680121A9408843A101144AFC32891817
:100CD0000860A0011149FC314018006A0121A940B7
:100CE0008843A1010D4AFC3289180862A00111460F
:100CF0004018406A0121A9408843A101891848622F
:100D0000A00111464018C16A0120A8408143A001FA
:100D10008018C162002070BD00200040040C024019
:100D200030B50346002A0BD098010C4C0019C0685E
:100D300001248C4020439C01084D6419E0600AE0C6
:100D40009801064C0019C06801248C40A0439C0106
:100D5000024D6419E060002030BD0000000D02402B
:100D600008B50020009000BF00980028FCD008BD06
:100D700010B5044601480068804710BD3C000020C3
:100D800010B50020C046C04610BD10B50120C046B9
:100D9000C04610BD10B50220C046C04610BD10B5FB
:100DA0000320C046C04610BD10B5002000F0B0F9C9
:100DB00010BD10B5012000F0ABF910BD10B500203A
:100DC00000F070F810BD10B50020FFF7D1FF10BD86
:100DD00010B5002000F090F810BD10B5012000F013
:100DE0008BF810BD10B5022000F086F810BD10B5CC
:100DF0000420FFF765FB10BD10B50520FFF760FB71
:100E000010BD10B50620FFF75BFB10BD10B500202C
:100E100000F038F810BD10B5002000F0C3FB10BD85
:100E200010B50020FFF7F8FA10BD10B5002000F053
:100E300085FB10BD10B5012000F080FB10BD10B582
:100E4000002000F00BF810BD10B50020FFF702FFE6
:100E500010BD10B50020FFF75DFD10BD10B50446B4
:100E60000648C06A400840000449C8620448006857
:100E7000002802D002480068804710BD00240040CE
:100E80004000002010B5044601480068804710BDAE
:100E90004400002010B502A0FFF790F910BD00003B
:100EA000300A000010B502480068804710BD0000FD
:100EB0004800002010B5FFF7A3FD0149086010BDF0
:100EC000000000201CB50220FFF71CFE01210020BD
:100ED000FFF73EFDFFF7EEFF0821684600F016FC25
:100EE000012069464870034801906846FFF75AFEA2
:100EF0001CBD0000FFFFFF0010B50446002C04D00D
:100F0000012C06D0022C0CD107E00748006880476E
:100F100008E006480068804704E00548006880470C
:100F200000E000BF00BF10BD2C00002030000020FA
:100F30003400002070B50546A81D44B2204600F0DC
:100F40005FFB0321204600F067FB2046002809DBF9
:100F5000C206D20E01219140034A1160BFF34F8FA8
:100F6000BFF36F8F00BF70BD80E100E010B5024697
:100F70000020002100BF0BE014234B43064CE35834
:100F8000934203D114234B43181903E04B1CD9B2ED
:100F90000229F1D300BF10BD5000002070B50546F6
:100FA000A81D44B2204600F02BFB0321204600F090
:100FB00033FB2046002809DB00BF00BFC206D20E6B
:100FC00001219140024A116000BF00BF00BF70BD07
:100FD00000E100E070B506460D4600243046FFF7FC
:100FE000C5FF0446002C01D1042070BD002D04D0A3
:100FF000012D09D0022D15D10DE060684069042152
:101000008843616848610FE06068406940084000BB
:101010006168486108E0606840690221884361684E
:10102000486101E00420E0E700BF0020DDE770B583
:1010300006460D4600243046FFF798FF0446002C74
:1010400001D1042070BD60684068102188432901E7
:10105000102211400843616848600020F2E770B533
:1010600006460D4600243046FFF780FF0446002C5C
:1010700001D1042070BD002D02D0012D10D107E058
:101080006068406802218843801C6168486009E00C
:101090006068406840084000401C6168486001E0AA
:1010A0000420E7E700BF0020E4E7F8B506460D4658
:1010B000002700243046FFF759FF0446002C01D1D9
:1010C0000420F8BD002D04D0012D0BD0022D1BD122
:1010D00011E0606800694007C00F012148404840A6
:1010E000074612E060680069C007C00F0121484050
:1010F0004840074609E0606800698007C00F012189
:1011000048404840074600E000BF00BF3846D8E7E7
:1011100070B5054600242846FFF728FF0446002C3A
:1011200000D170BD606800694007C00F002809D079
:1011300000212846FFF74EFFE068002801D0E06854
:101140008047EEE760680069C007C00F002808D03C
:1011500001212846FFF73EFF2069002801D02069C1
:101160008047606800698007C00F002808D002210E
:101170002846FFF72FFFA068002801D0A06880470D
:1011800000BFCEE7F8B506460C46012700253046DD
:10119000FFF7ECFE0546002D01D10420F8BD002C20
:1011A00001D10420FAE72178304600F092F8074692
:1011B0006068002804D03046616800F0A2F8074655
:1011C000A068002808D0A0684168E960A06881682C
:1011D0002961A0680068A860207B012803D13046FF
:1011E000FFF7DCFE02E03046FFF7A4FE002738469A
:1011F000D4E770B505460C4622460021284600F08B
:10120000A4F82146284600F008F800BF022128462D
:10121000FFF74BFF0128F9D070BD70B506460C46AC
:1012200000253046FFF7A2FE0546002D01D104201F
:1012300070BD02213046FFF7CDFE6868046000BF34
:1012400002213046FFF731FF0028F9D00221304655
:10125000FFF7C0FE0020EBE7F8B507460E46144640
:101260000020009000253846FFF780FE0546002D3F
:1012700001D0002C01D10020F8BD68684068012130
:101280004902884361784902012252021140084311
:10129000696848602078002806D0012806D0022816
:1012A00003D0032811D102E000BF0FE000BF626845
:1012B00051016278521C72431046FEF78DFF0121E6
:1012C0000904081A80B2009000E000BF00BF009837
:1012D000D2E770B506460D4600243046FFF746FEBD
:1012E0000446002C01D1042070BD60684068C02114
:1012F0008843A901C022114008436168486000206A
:10130000F2E770B506460C4600253046FFF72EFE84
:101310000546002D01D1042070BD002C13D0686853
:101320004068202188432178490120221140084348
:10133000696848602078012805D16078696888600C
:10134000A0786968C8600020E6E7F7B51646002473
:1013500000250098FFF70AFE0546002D01D1042064
:10136000FEBD002709E080203040802801D1601CAC
:10137000C4B27006060E781CC7B2082FF3DB0198C2
:10138000002815D12046E10F091849104900611ABB
:1013900007D0686840680821884308306968486059
:1013A0001BE068684068082188436968486014E069
:1013B0002046E10F091849104900611A06D06868F3
:1013C0004068082188436968486006E068684068AA
:1013D000082188430830696848600020C0E70000A1
:1013E00010B590B004460C2109A800F08FF9032134
:1013F00008A800F08BF9082106A800F087F914214D
:1014000001A800F083F9002205210320FFF72CFC3E
:10141000012206210320FFF727FC00BF4148C068D6
:10142000202188433F49C8603F484069C008C00048
:10143000C01C3D4948613B48006820218843394928
:1014400008600846006A2021884320303549086238
:1014500000BF00BF0846C068402188433149C860CA
:1014600031488069C008C000C01C2F4988612D48E0
:1014700000684021884340302A49086000BF0121AC
:101480000820FFF721FB01210020FFF71DFB274863
:101490000B900020099026480A9009A80E9001217F
:1014A00008A8017703210174002101700D900CA997
:1014B0000020FFF767FE002168464176079403216C
:1014C0000176FFF7F1FA1B49086006AA0846016891
:1014D0000020FFF7C1FE18490880012168464172CB
:1014E0000021017201A90020FFF7F2F812480188DB
:1014F0000020FFF791F8104801880020FFF7BAF8A4
:101500000020FFF7DDF901210020FFF7A8FD0121F0
:101510000020FFF75FFD01210020FFF788FD10B0DC
:1015200010BD0000C00D0240C00C0240950E00002E
:10153000650C0000080000200400002010B50446DF
:10154000002C13D11448406AC007C00F002822D0D5
:1015500012480068002802D01048006880470E48F2
:10156000406A400840000C49486214E0012C12D146
:101570000948406A8007C00F00280CD0084800685E
:10158000002802D00648006880470348406A0221CC
:1015900088430149486210BD0024004078000020C3
:1015A0007C00002010B5084840680006C00F0028E5
:1015B00008D000F00DF805480068002802D0034864
:1015C0000068804710BD0000800C004080000020B3
:1015D00001201E21024A1160E121116000207047A4
:1015E000800C004030B47446641E2578641CAB4205
:1015F00004D3635D5B00E31830BC18471D46F8E771
:10160000002805DBC206D20E01219140014A11607B
:101610007047000080E200E010B5002819DB1A4A8C
:1016200003231B02D21883089B00D2588307DC0EC9
:10163000FF23A3409A438B071B0E8407E40EA340AD
:101640001A43114B032424021B198408A4001A51C5
:1016500018E00E4A03071B0F083B9B089B00D2585B
:101660008307DC0EFF23A3409A438B071B0E8407DE
:10167000E40EA3401A43054B0407240F083CA408BA
:10168000A4001A5110BD000000E100E01CED00E0D4
:1016900010B5002819DB1A4A03231B02D21883084D
:1016A0009B00D2588307DC0EFF23A3409A438B078D
:1016B0001B0E8407E40EA3401A43114B032424029B
:1016C0001B198408A4001A5118E00E4A03071B0FC7
:1016D000083B9B089B00D2588307DC0EFF23A340E6
:1016E0009A438B071B0E8407E40EA3401A43054B55
:1016F0000407240F083CA408A4001A5110BD0000E0
:1017000000E100E01CED00E000BF704710B50A46A4
:101710000146002900D110BD02E000230B70491CD6
:101720001346521E002BF8D100BFF4E770B50446F3
:101730000D46E0B20A2803D10D210020FFF759FD24
:10174000E1B20020FFF755FD204670BD4B20C001DF
:10175000FFF746FE00BFFEE7008000000096000095
:101760008017000000000020880000000401000035
:10177000081800008800002030030000200100004D
:1017800000093D0000000000000000005275734891
:101790004848210A00300A00310A00320A00330AA0
:1017A0000001000000000000000000000000000038
:1017B0000000000000000000000000000000000029
:1017C0000000000000000000000000000000000019
:1017D00000000000000000400000000000000000C9
:1017E00000000000010000000001004000000000B7
:1017F00000000000000000000000000000000000E9
:081800000000000000000000E0
:04000005000000C136
:00000001FF
