:020000040000FA
:10000000B8030020650100007F010000290A0000FC
:1000100000000000000000000000000000000000E0
:10002000000000000000000000000000830100004C
:1000300000000000000000008501000087010000B2
:10004000490A0000530A00005D0A0000670A000028
:100050008901000089010000710A00007B0A00008C
:100060008901000089010000850A00008901000063
:100070008F0A000089010000990A0000A30A00000D
:10008000AD0A000089010000B70A0000C10A0000A3
:10009000CB0A0000D50A0000DF0A00008901000039
:1000A000E90A000089010000F30A0000FD0A0000CF
:1000B000070B000089010000110B00001B0B000062
:1000C00000F002F800F03EF80CA030C80838241800
:1000D0002D18A246671EAB4654465D46AC4201D180
:1000E00000F030F87E460F3E0FCCB6460126334274
:1000F00000D0FB1AA246AB4633431847100F00004E
:10010000300F0000103A02D378C878C1FAD85207ED
:1001100001D330C830C101D504680C6070470000BD
:100120000023002400250026103A01D378C1FBD813
:10013000520700D330C100D50B6070471FB51FBDFB
:1001400010B510BD00F0EAF81146FFF7F7FF00F018
:1001500053FF00F002F903B4FFF7F2FF03BC00F015
:100160001BFF00000C480D4A002100A1814200D96C
:1001700002440B4802600B4880470B480047FEE7EB
:10018000FEE7FEE7FEE7FEE7FEE700000748084956
:10019000064A084B704700000000002000000000E5
:1001A00008ED00E0ED0C0000C1000000B8010020E7
:1001B000B8030020B80100207047002203098B42D9
:1001C0002CD3030A8B4211D300239C464EE00346F6
:1001D0000B433CD4002243088B4231D303098B42AA
:1001E0001CD3030A8B4201D394463FE0C3098B42E0
:1001F00001D3CB01C01A524183098B4201D38B0139
:10020000C01A524143098B4201D34B01C01A5241DB
:1002100003098B4201D30B01C01A5241C3088B4220
:1002200001D3CB00C01A524183088B4201D38B000B
:10023000C01A524143088B4201D34B00C01A5241AD
:10024000411A00D201465241104670475DE0CA0F84
:1002500000D04942031000D34042534000229C4644
:1002600003098B422DD3030A8B4212D3FC2289014E
:1002700012BA030A8B420CD3890192118B4208D324
:10028000890192118B4204D389013AD0921100E086
:100290008909C3098B4201D3CB01C01A524183099A
:1002A0008B4201D38B01C01A524143098B4201D3C7
:1002B0004B01C01A524103098B4201D30B01C01AF2
:1002C0005241C3088B4201D3CB00C01A524183086C
:1002D0008B4201D38B00C01A5241D9D243088B42C2
:1002E00001D34B00C01A5241411A00D20146634665
:1002F00052415B10104601D34042002B00D54942C9
:10030000704763465B1000D3404201B50020C046F1
:10031000C04602BD7047704770477047754600F091
:1003200025F8AE46050069465346C008C00085461C
:1003300018B020B5FFF72AFF60BC00274908B64671
:100340000026C0C5C0C5C0C5C0C5C0C5C0C5C0C5E4
:10035000C0C5403D49008D46704710B50446C046B3
:10036000C0462046FFF7F7FE10BD0000004870476A
:100370005401002010B504462648006A4007C00F0B
:1003800000280CD024484068002802D02249486840
:1003900080472048406A042188431E4948621D481E
:1003A000006A8007C00F00280CD01B488068002816
:1003B00002D01949886880471648406A022188435C
:1003C000144948621348006AC007C00F00280CD0C7
:1003D0001148C068002802D00F49C86880470D48FE
:1003E000406A400840000B4948620A48006A00071A
:1003F000C00F00280CD008480068002802D0064929
:10040000086880470348406A0821884301494862D8
:1004100010BD0000402400408400002070B5064656
:10042000301FC4B2A0025049451888154059C00772
:10043000C00F00280DD0A0014C490858002803D057
:10044000A1014A4A505880470121C943FF20053085
:100450004151FF20013040598007C00F00280FD0C4
:10046000A001424940184068002804D0A1013F4A39
:100470008918486880470221C943FF20053041514F
:10048000FF20013040594007C00F00280FD0A001C5
:10049000364940188068002804D0A101334A8918E1
:1004A000886880470421C943FF2005304151FF205F
:1004B000013040590007C00F00280FD0A0012B4980
:1004C0004018C068002804D0A101284A8918C868CB
:1004D00080470821C943FF2005304151FF200130EA
:1004E00040594006C00F00280FD0A0011F494018F6
:1004F0008069002804D0A1011C4A891888698047B6
:100500004021C943FF2005304151FF2001304059AF
:100510000006C00F00280FD0A00114494018C06980
:10052000002804D0A101114A8918C8698047802198
:10053000C943FF2005304151FF2001304059C0051B
:10054000C00F00280ED0A00108494018006A0028FA
:1005500004D0A101054A8918086A80470449FF2090
:100560000530415170BD0000003000409400002073
:10057000FFFEFFFF10B5044601480068804710BD2C
:100580004C00002002480349886003488860704797
:100590005A5A000000200040A5A50000034800684A
:1005A0000F21C902884301490860704700200040BC
:1005B00070B505460C460026FFF7E4FF002C01D07D
:1005C000012000E000200446002D34D0012D0CD085
:1005D000022D3AD12048006804218843A10004225A
:1005E000114008431C49086033E01C48C0680221E0
:1005F000884361000222114008431849C860084638
:10060000C06804218843A100042211400843134913
:10061000C86011480069000900010F300E490861E7
:100620000846006802218843610002221140084305
:10063000094908600DE00848006840084000E107EB
:10064000C90F08430449086003E0FFF7A7FF042629
:1006500000BF00BF304670BD00200040000D0240CA
:100660001EB50020002120A31B6802931F4C18CC4C
:10067000019400931E4B1B689B069A0F002A04D01E
:10068000012A23D0022A23D116E0194BDB68032468
:10069000640223405B0A02ACE05C164B5843164BE5
:1006A000984208D1154B5988114BDB685B055B0DEF
:1006B0008B4200D112480DE00D4B5B6901246402AE
:1006C00023405B0A9B006C46E05803E00D4801E0C4
:1006D000002000BF00BF064B1B68DB055C0F034614
:1006E000E34018461EBD0000040810180410000066
:1006F0000020004040420F0000366E01000C100048
:10070000408651010048E80110B5014600208A1ECC
:10071000130000F0F7FB0504101C28344000204BA8
:100720001B895A05520D1F4BDB68DB0ADB021343A2
:100730001C4CE36031E01A4BDB885A05520D194B13
:10074000DB68DB0ADB021343164CE36025E0144B45
:100750009B885A05520D134BDB68DB0ADB021343FF
:10076000104CE36019E00E4B5B885A05520D0D4B9F
:10077000DB68DB0ADB0213430A4CE3600DE0084B45
:100780001B885A05520D074BDB68DB0ADB0213435B
:10079000044CE36001E0042000BF00BF10BD000076
:1007A000000C10000020004010B50446002C01D1C0
:1007B000042010BD2648006A01210906884340181C
:1007C000234908622078002804D0012818D0022884
:1007D0001FD10AE01E48406B03218906884301218E
:1007E000C90640181A49486315E01948406B0321AF
:1007F00089068843012189064018154948630AE0A3
:100800001348406B03218906884340181049486308
:1008100001E00420CDE700BF0D48406B01214906EF
:10082000884361784906012252061140084308496D
:1008300048636068401E074948610321081F00F0B3
:100840006FFB002003498861012008610020B0E7A8
:100850000020004000E000E010B5044601480068B8
:10086000804710BD3800002002469001034BC0189D
:100870004068C840C007C00F70470000000D02402C
:1008800070B504460D4616462948006A012109073D
:10089000884340182649086200222946204600F075
:1008A0004BF80021A001234A8018001FAA008150A4
:1008B000002E0DD0A0011F49FC3140180068012115
:1008C000A9400843A1011B4AFC32891808600CE0CA
:1008D000A0011849FC31401800680121A940884353
:1008E000A101144AFC3289180860A0011149FC31A9
:1008F0004018006A0121A9408843A1010D4AFC3239
:1009000089180862A00111464018406A0121A940D7
:100910008843A10189184862A00111464018C16AA4
:100920000120A8408143A0018018C162002070BD51
:1009300000200040040C024030B50346002A0BD0D2
:1009400098010C4C0019C06801248C4020439C0184
:10095000084D6419E0600AE09801064C0019C0686F
:1009600001248C40A0439C01024D6419E0600020EA
:1009700030BD0000000D024030B5002A01D0012337
:1009800000E000231A46002A0BD083010B4C1B19F0
:100990009B6801248C4023438401084D6419A360A3
:1009A0000AE08301054C1B199C6801238B409C4382
:1009B0008301024D5B199C6030BD0000000D0240B8
:1009C00010B5012202210020FFF75AFF0122114633
:1009D0000020FFF755FF002202210320FFF750FF00
:1009E000002202210320FFF7C7FF00220321104647
:1009F000FFF746FF002203211046FFF7BDFF00224C
:100A000004210320FFF73CFF002204210320FFF70D
:100A1000B3FF002205210320FFF732FF002205214A
:100A20000320FFF7A9FF10BD08B50020009000BF0C
:100A300000980028FCD008BD10B5044601480068A5
:100A4000804710BD3C00002010B50020C046C046C5
:100A500010BD10B50120C046C04610BD10B5022023
:100A6000C046C04610BD10B50320C046C04610BDEC
:100A700010B5002000F0B7F910BD10B5012000F04E
:100A8000B2F910BD10B5002000F020F910BD10B56E
:100A90000020FFF7D1FF10BD10B5002000F040F995
:100AA00010BD10B5012000F03BF910BD10B50220BB
:100AB00000F036F910BD10B50420FFF7AFFC10BDF3
:100AC00010B50520FFF7AAFC10BD10B50620FFF7F2
:100AD000A5FC10BD10B5002000F0F0F810BD10B559
:100AE000002000F0EFF910BD10B50020FFF742FC28
:100AF00010BD10B5002000F0B1F910BD10B50120F7
:100B000000F0ACF910BD10B5002000F0C3F810BD26
:100B100010B50020FFF7A0FE10BD10B50020FFF7B4
:100B200029FD10BD10B5002402210020FFF79CFE16
:100B3000002811D1322000F041FA02210020FFF7F5
:100B400093FE002808D101E0012004430221002087
:100B5000FFF78AFE0028F7D001210020FFF784FE6E
:100B6000002811D1322000F029FA01210020FFF7DE
:100B70007BFE002808D101E002200443012100206F
:100B8000FFF772FE0028F7D0204610BD10B5FFF722
:100B9000C9FF012802D0022818D10BE03C48007898
:100BA000401C3B49087008460078052801D1012007
:100BB00008700BE036480078401E3549087008463A
:100BC0000078002801D10420087000BF00BF304821
:100BD0000078012806D0022819D003282CD0042838
:100BE00054D13EE0012202210320FFF7C5FE00227E
:100BF00003211046FFF7C0FE002204210320FFF767
:100C0000BBFE002205210320FFF7B6FE3EE00022D6
:100C100002210320FFF7B0FE012203210020FFF78D
:100C2000ABFE002204210320FFF7A6FE00220521CF
:100C30000320FFF7A1FE29E0002202210320FFF795
:100C40009BFE002203211046FFF796FE012204219D
:100C50000320FFF791FE002205210320FFF78CFE01
:100C600014E0002202210320FFF786FE0022032168
:100C70001046FFF781FE002204210320FFF77CFECF
:100C8000012205210320FFF777FE00BF00BF10BD42
:100C90002100002010B504460648C06A4008400004
:100CA0000449C86204480068002802D0024800686D
:100CB000804710BD002400404000002010B50446CD
:100CC00001480068804710BD4400002010B502486C
:100CD0000068804710BD00004800002010B5FFF7F5
:100CE000BFFC0149086010BD000000201CB50220B7
:100CF000FFF70AFD01210020FFF75AFCFFF7EEFF86
:100D00000821684600F04AF9012069464870034806
:100D100001906846FFF748FD1CBD0000FFFFFF0083
:100D200010B50446002C04D0012C06D0022C0CD1A6
:100D300007E007480068804708E0064800688047E9
:100D400004E005480068804700E000BF00BF10BD18
:100D50002C000020300000203400002010B5024696
:100D60000020002100BF0BE014234B43064CE35846
:100D7000934203D114234B43181903E04B1CD9B2FF
:100D80000229F1D300BF10BD5000002070B5064607
:100D90000D4600243046FFF7E1FF0446002C01D148
:100DA000042070BD002D04D0012D09D0022D15D1D5
:100DB0000DE06068406904218843616848610FE084
:100DC00060684069400840006168486108E0606808
:100DD0004069022188436168486101E00420E0E73E
:100DE00000BF0020DDE770B5054600242846FFF768
:100DF000B5FF0446002C00D170BD60680069400753
:100E0000C00F002809D000212846FFF7BFFFE06887
:100E1000002801D0E0688047EEE760680069C007FD
:100E2000C00F002808D001212846FFF7AFFF206936
:100E3000002801D020698047606800698007C00FE2
:100E4000002808D002212846FFF7A0FFA06800284C
:100E500001D0A068804700BFCEE7000010B504466F
:100E6000002C13D11448406AC007C00F002822D0BC
:100E700012480068002802D01048006880470E48D9
:100E8000406A400840000C49486214E0012C12D12D
:100E90000948406A8007C00F00280CD00848006845
:100EA000002802D00648006880470348406A0221B3
:100EB00088430149486210BD0024004078000020AA
:100EC0007C00002010B5084840680006C00F0028CC
:100ED00008D000F00DF805480068002802D003484B
:100EE0000068804710BD0000800C0040800000209A
:100EF00001201E21024A1160E1211160002070478B
:100F0000800C004030B47446641E2578641CAB42EB
:100F100004D3635D5B00E31830BC18471D46F8E757
:100F200010B5002819DB1A4A03231B02D2188308C4
:100F30009B00D2588307DC0EFF23A3409A438B0704
:100F40001B0E8407E40EA3401A43114B0324240212
:100F50001B198408A4001A5118E00E4A03071B0F3E
:100F6000083B9B089B00D2588307DC0EFF23A3405D
:100F70009A438B071B0E8407E40EA3401A43054BCC
:100F80000407240F083CA408A4001A5110BD000057
:100F900000E100E01CED00E000BF704710B50A461C
:100FA0000146002900D110BD02E000230B70491C4E
:100FB0001346521E002BF8D100BFF4E770B505466A
:100FC00010E000200A4988617D21C90009480068B5
:100FD000FFF7F3F8012109060C1A00BF04488069E5
:100FE000A042FBD828466D1E0028EAD170BD000043
:100FF00000E000E000000020FFF7E2FC01E0FFF766
:10100000C5FDFCE700800000009600002C100000E9
:10101000000000208400000004010000B010000067
:1010200084000020340300002001000000093D007E
:101030000000000000000000527573484848210A73
:1010400000300A00310A00320A00330A00010000B1
:101050000000000000000000000000000000000090
:101060000000000000000000000000000000000080
:101070000000000000000000000000000000000070
:101080000000004000000000000000000000000020
:10109000010000000001004000000000000000000E
:1010A0000000000000000000000000000000000040
:04000005000000C136
:00000001FF
